:100000000C945D000C9485000C9485000C94850084
:100010000C9485000C9485000C9485000C9485004C
:100020000C9485000C9485000C9485000C9485003C
:100030000C9485000C9485000C9485000C9485002C
:100040000C9472030C9485000C9471020C944B0276
:100050000C9485000C9485000C9485000C9485000C
:100060000C94BC030C948500000000080002010001
:100070000003040700000000000000000000000072
:10008000250028002B0000000000240027002A0083
:10009000040404040404040402020202020203032E
:1000A0000303030301020408102040800102040836
:1000B0001020010204081020EF0C11241FBECFEF06
:1000C000D8E0DEBFCDBF12E0A0E0B1E0E4E9F4E2A9
:1000D00002C005900D92A233B107D9F725E0A2E343
:1000E000B2E001C01D92AD3EB207E1F710E0CDE5F0
:1000F000D0E004C02197FE010E949B0DCC35D107B2
:10010000C9F70E94F40A0C9448120C940000CF9294
:10011000DF92EF92FF920F931F93CF93DF936C01C7
:100120007A018B01C0E0D0E0CE15DF0589F0D8015F
:100130006D918D01D601ED91FC910190F081E02D42
:10014000C6010995892B11F47E0102C02196ECCFDE
:10015000C701DF91CF911F910F91FF90EF90DF903A
:10016000CF900895FC01918D828D981761F0828D5A
:10017000DF01A80FB11D5D968C91928D9F5F9F73DB
:10018000928F90E008958FEF9FEF0895FC01918D7D
:10019000828D981731F0828DE80FF11D858D90E0EA
:1001A00008958FEF9FEF0895FC01918D228D892F87
:1001B00090E0805C9F4F821B91098F73992708956F
:1001C0008AE295E00E94D40021E0892B09F420E026
:1001D000822F0895FC01848DDF01A80FB11DA35A61
:1001E000BF4F2C91848D90E001968F739927848F57
:1001F000A689B7892C93A089B1898C9180648C934E
:10020000938D848D981306C00288F389E02D808138
:100210008F7D80830895EF92FF920F931F93CF936A
:10022000DF93EC0181E0888F9B8D8C8D981305C046
:10023000E889F989808185FD24C0F62E0B8D10E0B8
:100240000F5F1F4F0F731127E02E8C8DE8120CC02B
:100250000FB607FCFACFE889F989808185FFF5CFD1
:10026000CE010E94EA00F1CF8B8DFE01E80FF11D57
:10027000E35AFF4FF0820B8FEA89FB89808180620D
:1002800007C0EE89FF896083E889F98980818064ED
:10029000808381E090E0DF91CF911F910F91FF90DB
:1002A000EF900895CF93DF93EC01888D8823C9F0F8
:1002B000EA89FB89808185FD05C0A889B9898C916F
:1002C00086FD0FC00FB607FCF5CF808185FFF2CF0A
:1002D000A889B9898C9185FFEDCFCE010E94EA00F3
:1002E000E7CFDF91CF9108950E94E00081110C9437
:1002F000D80508950E949310FC0180819181009798
:1003000011F00C94B11060E070E0CB010895FC0195
:1003100024813581232B31F421E061157105A1F091
:10032000FB0108C0FC01808191816115710531F4E8
:1003300021E0FC018081882339F005C00E94A110D2
:1003400021E0892B09F020E0822F08950F931F935D
:10035000CF93DF938C01EB01FC01808191810097A9
:10036000B1F0688179816115710579F0428153811D
:100370002C813D814217530740F00E94AA108C81C6
:100380009D81F8019583848313C00E94310F888179
:100390009981F801918380838A819B8193838283F1
:1003A0008C819D8195838483198218821B821A8295
:1003B0001D821C82DF91CF911F910F9108950F93A1
:1003C0001F93CF93DF93EC0188819981009729F0E7
:1003D0002A813B812617370788F48B016F5F7F4F97
:1003E0000E94C90F009761F0998388831B830A8359
:1003F0002C813D81232B11F4FC01108281E001C08E
:1004000080E0DF91CF911F910F910895EF92FF92BD
:100410000F931F93CF93DF93EC017B018A01BA0105
:100420000E94DF012881398181110DC0211531051C
:1004300019F0C9010E94310F198218821D821C8295
:100440001B821A8206C01D830C83B701C9010E945A
:10045000AA10CE01DF91CF911F910F91FF90EF90E5
:100460000895FC01808191810C94310F6115710513
:1004700079F0FB0101900020E9F73197AF01461BAD
:10048000570BDC01ED91FC910280F381E02D099482
:1004900080E090E008951F920F920FB60F92112402
:1004A0002F933F934F935F936F937F938F939F937C
:1004B000AF93BF93EF93FF938AE295E00E94EA0027
:1004C000FF91EF91BF91AF919F918F917F916F912C
:1004D0005F914F913F912F910F900FBE0F901F9002
:1004E00018951F920F920FB60F9211242F938F938E
:1004F0009F93EF93FF93E0913A05F0913B05808144
:10050000E0914005F091410582FD12C090818091FB
:1005100043058F5F8F7320914405821751F0E0915E
:100520004305F0E0E65DFA4F958F8093430501C0E7
:100530008081FF91EF919F918F912F910F900FBE2E
:100540000F901F90189590E0FC01E859FF4F3491EF
:10055000FC01EC55FF4F2491FC01E057FF4FE49163
:10056000EE2309F43BC0332339F1333091F038F4F2
:100570003130A9F0323001F584B58F7D12C03730AB
:1005800091F03830A1F03430B9F4809180008F7D43
:1005900003C0809180008F77809380000DC084B568
:1005A0008F7784BD09C08091B0008F7703C08091A0
:1005B000B0008F7D8093B000F0E0EE0FFF1FE45895
:1005C000FF4FA591B4918FB7F894EC91611103C0DE
:1005D00020952E2301C02E2B2C938FBF08951F939F
:1005E000CF93DF93182FEB010E944609209711F457
:1005F00060E004C0CF3FD10539F461E0812FDF9185
:10060000CF911F910C94A302E12FF0E0E859FF4F26
:10061000E491E330F9F048F4E130B9F0E230A1F5CB
:1006200084B5806284BDC8BD34C0E730E9F0E830ED
:1006300019F1E43049F58091800080628093800058
:10064000D0938B00C0938A0024C084B5806884BD99
:10065000C7BD1FC080918000806880938000D093C8
:100660008900C093880015C08091B0008068809395
:10067000B000C093B3000DC08091B0008062809341
:10068000B000C093B40005C0C038D1050CF0B5CFA0
:10069000AFCFDF91CF911F9108953FB7F89480912C
:1006A000080590910905A0910A05B0910B0526B5A2
:1006B000A89B05C02F3F19F00196A11DB11D3FBF9A
:1006C000BA2FA92F982F8827820F911DA11DB11D28
:1006D000BC01CD0142E0660F771F881F991F4A9524
:1006E000D1F708951F920F920FB60F9211242F93F6
:1006F0003F938F939F93AF93BF93809126059091E3
:100700002705A0912805B09129053091070523E020
:10071000230F2D3720F40196A11DB11D05C026E839
:10072000230F0296A11DB11D209307058093260576
:1007300090932705A0932805B0932905809108057B
:1007400090910905A0910A05B0910B050196A11D94
:10075000B11D8093080590930905A0930A05B093F5
:100760000B05BF91AF919F918F913F912F910F906A
:100770000FBE0F901F9018951F920F920FB60F92F9
:1007800011242F933F934F935F936F937F938F9396
:100790009F93AF93BF93EF93FF938091B900887FAE
:1007A000803609F49CC068F5883209F45BC090F487
:1007B000803109F454C038F4882309F4F6C0883035
:1007C00009F44DC0F6C0883109F44CC0803209F4F8
:1007D0005DC0EFC0803409F468C048F4803309F488
:1007E00055C0883309F0E5C08093E104D8C0803556
:1007F00009F44FC0883509F45DC0883409F0D9C0C8
:10080000D6C0883909F4C7C0A8F4883709F467C08E
:1008100038F4883609F463C0803709F460C0C9C071
:10082000883809F4B8C0803909F45FC0803809F00D
:10083000C0C05BC0803B09F486C038F4803A09F43C
:1008400066C0883A09F47FC0B4C0803C09F4A7C0F0
:10085000883C09F4A4C0883B09F48AC0AAC08091EE
:10086000060510C09091050580910405981770F554
:10087000E091050581E08E0F80930505F0E0EC51D5
:10088000FB4F80818093BB0085EC86C08093E104A0
:100890008EC0E091050581E08E0F80930505809163
:1008A000BB00F0E0EC51FB4F8083909105058091F7
:1008B00004056EC0E091050581E08E0F809305056B
:1008C0008091BB00F0E0EC51FB4F80838091E3040A
:1008D00081116DC081E08093E20484EA61C083E00D
:1008E000809353021092E004CFCF8091E0048032D5
:1008F00008F051C0E091E00481E08E0F8093E004A5
:100900008091BB00F0E0E054FB4F8083BDCF85ECCD
:100910008093BC00109253028091E004803230F446
:10092000E091E004F0E0E054FB4F10826091E004BD
:1009300070E0E091BE04F091BF0480EC94E0099572
:100940001092E00436C084E0809353021092BD04FC
:1009500010925202E091BB04F091BC040995809181
:100960005202811105C081E080935202109232023E
:10097000E091BD0481E08E0F8093BD04F0E0EE5C59
:10098000FD4F80818093BB009091BD048091520205
:10099000981708F479CF85E88093BC000AC085ECED
:1009A0008093BC001092530204C01092E1040E9494
:1009B0006208FF91EF91BF91AF919F918F917F91CD
:1009C0006F915F914F913F912F910F900FBE0F90BC
:1009D0001F90189540915202262F30E0240F311DB0
:1009E00021323105DCF4209153022430C9F4FC019A
:1009F00080E090E0861758F4309152022191DC019A
:100A0000AE5CBD4FA30FB11D2C930196F3CF809127
:100A10005202680F6093520280E0089581E00895C9
:100A200082E0089508958FEF9FEF08958FEF9FEF75
:100A300008958091250590E09195819591090895FB
:100A4000CF93DF9300D0CDB7DEB7CB01642F4983BE
:100A50005A830E94EA044981842F5A81952F0F906E
:100A60000F90DF91CF910895CF93DF931F92CDB771
:100A7000DEB7698361E0CE0101960E94EA0481E05D
:100A800090E00F90DF91CF91089508950895DC01D3
:100A9000ED91FC910284F385E02D41E0099581E020
:100AA00090E00895089508950895CF93DF93FC0191
:100AB00084858823B1F02289A089B1898785C5857D
:100AC000D6853FB7F894988180958923888388E0FC
:100AD0009C91922B9C939C9192279C938150C1F75F
:100AE0003FBF2289A089B1893785C585D68588E031
:100AF000732F7095522F50954FB7F894988167FFD8
:100B000002C0932B01C097239883660F9C91922B70
:100B10009C939C9195239C934FBF815069F79FB7FD
:100B2000F894A389B4892C918589822B8C93A3890D
:100B3000B4892C91858982278C939FBFDF91CF91B7
:100B40000895FF920F931F93CF93DF938C01C62FCD
:100B5000D0E0413021F0F12C423069F002C024E0B5
:100B6000F22E9E0135952795622F687760686F2970
:100B7000C8010E94550583E0CC0FDD1F8A95E1F77F
:100B8000C877C0686C2F6F29C8010E945505F8010D
:100B90008485882319F083E290E002C08FE390E01F
:100BA0000197F1F7DF91CF911F910F91FF90089579
:100BB0002F923F924F925F926F927F928F929F926D
:100BC000AF92BF92CF92DF92EF92FF920F931F935B
:100BD000CF93DF93CDB7DEB7AC970FB6F894DEBFF7
:100BE0000FBECDBF6AE2CE0101967C010E94490A88
:100BF000C7010E9431021E2D0F2D6EE3CE01079614
:100C00000E94490A8F819885892B81F086E292E0C3
:100C10000E94360ACE0107960E94A60A61E372E09E
:100C2000CE0107960E9487018823E9F0CE0107963E
:100C30000E943102AC960FB6F894DEBF0FBECDBF56
:100C4000DF91CF911F910F91FF90EF90DF90CF90A8
:100C5000BF90AF909F908F907F906F905F904F90DC
:100C60003F902F9008951A8219821C821B821E8247
:100C70001D8240E050E061E372E0812F902F0E94DE
:100C8000060265ED71E0CE0107960E948701882378
:100C900009F44EC181E0809324056AE3CE010D96EC
:100CA0000E94490ACE010D960E947C016B017C01D5
:100CB000CE010D960E943102D092AF04C092AE04D4
:100CC000CA94CD2809F022C18BED91E00E94360A2A
:100CD0006CE0C62E65E0D62EE12CF12C6CE2CE0144
:100CE0000D960E94490ABE01635F7F4F812F902FAE
:100CF0000E94A601CE010D960E943102812F902FF5
:100D00000E94A60A812F902FA3E0EA16F10434F482
:100D10000E947C01F6017183608307C00E947C0100
:100D2000D60117967C936E931697812F902F0E9471
:100D3000990ABFEFEB1AFB0AE2E0CE0ED11CF6E0F7
:100D4000EF16F10459F685EE91E00E94360A809084
:100D50000C0590900D058091180590911905881942
:100D6000990954E6E52EF12CB7010E94510D072E8A
:100D7000000C880B990B0E94F4106D8B7E8B8F8B6F
:100D8000988FA0900E05B0900F0580911A05909154
:100D90001B058A199B09B7010E94510D072E000CF3
:100DA000880B990B0E94F410698F7A8F8B8F9C8F20
:100DB000C0901005D090110580911C0590911D05E3
:100DC0008C199D09B7010E94510D072E000C880B4C
:100DD000990B0E94F4106D8F7E8F8F8F98A384E5FE
:100DE00092E09C8B8B8B212C312CC401990CAA0B8B
:100DF000BB0B89A39AA3ABA3BCA3C501BB0CAA0BD5
:100E0000BB0B8DA39EA3AFA3B8A7C601DD0CAA0B95
:100E1000BB0B89A79AA7ABA7BCA7B101032C000CF9
:100E2000880B990B0E94F4106B017C019B01AC01B3
:100E30006D897E898F89988D0E9453110E940E0EB4
:100E40002B013C01A7019601698D7A8D8B8D9C8DBC
:100E50000E9453110E940E0E4B015C01A7019601E6
:100E60006D8D7E8D8F8D98A10E9453110E940E0E64
:100E70006B017C0169A17AA18BA19CA10E94F41055
:100E80009B01AC01C301B2010E94A20D0E94250E7C
:100E9000AB89BC896D937C936DA17EA18FA198A530
:100EA0000E94F4109B01AC01C501B4010E94A20D87
:100EB0000E94250EEB89FC897383628369A57AA55C
:100EC0008BA59CA50E94F4109B01AC01C701B60143
:100ED0000E94A20D0E94250EAB89BC8915967C93B9
:100EE0006E931497BFEF2B1A3B0AEB89FC89369659
:100EF000FC8BEB8BF4E62F16310409F08ECF1092A9
:100F000024058CEF91E00E94360A42C06CE2CE01CB
:100F10000D960E94490ACE010D960E947C017093A5
:100F2000AD046093AC04CE010D960E94310230C036
:100F300062E172E0CE0107960E948701882391F159
:100F400081E08093B00440E0E42E41E0F42E6CE2B6
:100F5000CE010D960E94490ABE01635F7F4F812F2B
:100F6000902F0E94A601CE010D960E943102812F82
:100F7000902F0E947C01D7016D937D937D01812F7D
:100F8000902F0E94990AB4E0EB16B1E0FB06F9F647
:100F90006BE3CE010D960E94490ACE010D960E9488
:100FA000310287C067E172E0CE0107960E94870197
:100FB000882309F47EC032E0C32ED12C6AE3CE012F
:100FC0000D960E94490ABE01635F7F4F812F902FCB
:100FD0000E94A601CE010D960E9431026CE172E0E2
:100FE000812F902F0E948701882331F195EBE92E04
:100FF00094E0F92E6CE2CE010D960E94490ABE01E2
:10100000635F7F4F812F902F0E94A601CE010D9626
:101010000E943102812F902F0E947C01F701619381
:1010200071937F01812F902F0E94990AFBEBEF169D
:10103000F4E0FF06F9F62DC061E272E0812F902FF7
:101040000E948701882371F181EBE82E84E0F82E5D
:101050006CE2CE010D960E94490ABE01635F7F4F8C
:10106000812F902F0E94A601CE010D960E94310281
:10107000812F902F0E947C01D7016D937D937D017C
:10108000812F902F0E94990AB5EBEB16B4E0FB0676
:10109000F9F66BE3CE010D960E94490ACE010D963A
:1010A0000E943102CA94CD2821F0CC24C394D12CC3
:1010B00085CF812F902F0E943102CE0107960E948A
:1010C00031029BCD85ED8093BC008091BC0084FDF6
:1010D000FCCF109253020895DC01ED91FC91028443
:1010E000F385E02D40E009940F931F93CF93DF9396
:1010F000EC01423018F08C8188608C834F836887C4
:10110000222329F0413019F48C8184608C830E9461
:10111000BD0A6C8164FD31C0E881F9810284F385E8
:10112000E02D42E063E0CE0109958BE496E401975F
:10113000F1F7E881F9810284F385E02D42E063E074
:10114000CE01099503E512E0C8010197F1F7E881A6
:10115000F9810284F385E02D42E063E0CE01099538
:10116000C8010197F1F7E881F9810284F385E02D48
:1011700042E062E0CE01099517C06062CE010E9494
:101180006C088BE496E40197F1F76C816062CE0104
:101190000E946C0803E512E0C8010197F1F76C8129
:1011A0006062CE010E946C08C8010197F1F76C8162
:1011B0006062CE010E946C088BEE90E00197F1F71F
:1011C00084E08D836CE0CE010E946C0861E0CE016A
:1011D0000E946C088BE39FE10197F1F782E08E8318
:1011E00066E0CE010E946C08E881F9810084F185F7
:1011F000E02D6FEFCE01DF91CF911F910F910994F8
:101200002FB7F8948091260590912705A091280585
:10121000B09129052FBF8093320590933305A09399
:101220003405B0933505E0912A05F0912B05068031
:10123000F781E02D8AE295E0099597FF26C02FB748
:10124000F8948091260590912705A0912805B091EA
:1012500029052FBF40913205509133056091340527
:1012600070913505841B950BA60BB70B40912E058D
:1012700050912F05609130057091310584179507C5
:10128000A607B70780F28FEF9FEF089590E0FC016B
:10129000EC55FF4F2491FC01E057FF4F84918823C8
:1012A00099F090E0880F991FFC01EA57FF4FA59134
:1012B000B491FC01E458FF4F859194918FB7F89455
:1012C000EC91E22BEC938FBF0895CF93C82F0E942F
:1012D000460960E08C2F0E94A302EC2FF0E0E0575B
:1012E000FF4FE491F0E0EE0FFF1FE458FF4F8591B0
:1012F0009491CF9108958F929F92AF92BF92CF9287
:10130000DF92EF92FF920F931F93CF93DF93CDB7AE
:10131000DEB7A1970FB6F894DEBF0FBECDBF6C014C
:10132000990FEE08FF08F7FE33C0E091C705F09172
:10133000C8050190F081E02D6DE287EC95E00995FC
:101340008C0122273327A9012C193D094E095F0979
:1013500019A2CE0181967C019AE0892E912CA12CB4
:10136000B12CCA01B901A50194010E94650D605D0F
:10137000F70162937F01211531054105510589F778
:10138000BF0187EC95E00E943602800F911F1FC0BD
:10139000A701960119A28E010F5D1F4F8AE0C82E8A
:1013A000D12CE12CF12CCA01B901A70196010E94B0
:1013B000650D605DF80162938F01211531054105CE
:1013C000510589F7BF0187EC95E00E943602A1968E
:1013D0000FB6F894DEBF0FBECDBFDF91CF911F9146
:1013E0000F91FF90EF90DF90CF90BF90AF909F90C4
:1013F0008F900895BC0187EC95E00C943602CF9352
:10140000DF93CDB7DEB728970FB6F894DEBF0FBED7
:10141000CDBF1D8290E49E8324E12F8324E528879D
:1014200019829A8390E19B8390E59C832091CE055D
:10143000821710F08FEF820F3091CF0590E0FE0100
:10144000E80FF91F303121F4243011F4618101C01B
:101450006581606887EC95E028960FB6F894DEBF4A
:101460000FBECDBFDF91CF910C946C08CF93DF936B
:10147000BC018AE295E00E943602EC016FE272E064
:101480008AE295E00E9436028C0F9D1FDF91CF917A
:101490000895CF92DF92EF92FF920F931F93CF9315
:1014A000DF9300D0CDB7DEB78C01C62EFC011182D0
:1014B0001082138212821582148240E050E061E3B0
:1014C00072E00E9406020E9400090C2C000CDD084C
:1014D00097FD23C08C159D0501F189831A82F801BF
:1014E000E480F580FFEFEF1AFF0AB701C8010E9400
:1014F000DF01882379F0F801208131818481958191
:10150000BE016F5F7F4F820F931F0E94AA10F801E8
:10151000F582E4820E940009DBCFC8010F900F9092
:10152000DF91CF911F910F91FF90EF90DF90CF90BF
:101530000895CF93DF93EC0140E050E061E372E067
:101540000E940602CE01DF91CF910895CF93DF93E1
:10155000FC0144815581608171818AE295E00E949D
:101560008700EC016FE272E08AE295E00E943602A9
:101570008C0F9D1FDF91CF9108958F929F92AF9214
:10158000BF92CF92DF92EF92FF920E944D034B01E8
:101590005C0184E6C82ED12CE12CF12C0E944D0375
:1015A000DC01CB0188199909AA09BB09883E93403F
:1015B000A105B10558F021E0C21AD108E108F108EF
:1015C00088EE880E83E0981EA11CB11CC114D104C2
:1015D000E104F10419F7FF90EF90DF90CF90BF90F6
:1015E000AF909F908F900895789484B5826084BD69
:1015F00084B5816084BD85B5826085BD85B5816017
:1016000085BD80916E00816080936E001092810094
:10161000809181008260809381008091810081604F
:101620008093810080918000816080938000809110
:10163000B10084608093B1008091B000816080939C
:10164000B00080917A00846080937A0080917A0063
:10165000826080937A0080917A00816080937A0022
:1016600080917A00806880937A001092C100E091A6
:101670003A05F0913B0582E08083E0913A05F091D4
:101680003B051082E0913605F09137051082E0911C
:101690003805F091390580E1808310924205E09190
:1016A0003E05F0913F0586E08083E0913C05F09196
:1016B0003D05808180618083E0913C05F0913D058E
:1016C000808188608083E0913C05F0913D058081B8
:1016D00080688083E0913C05F0913D0580818F7D9D
:1016E00080838AE391E00E94360A8CE491E00E94B4
:1016F000360A83E00E94460985E00E94460986E09A
:101700000E94460989E00E9446098AE00E94460933
:101710008CE591E00E94360A20E044E064E187EC29
:1017200095E00E9474080AE010E0E090B504F090A3
:10173000B60480E00E94FF098CE691E00E94FA095D
:10174000C701B8010E94510D072E000C880B990BA0
:101750000E94F4100E940E0E4B015C01C1E0D0E02B
:10176000BE010D2E000C880B990B0E94F410A501F0
:1017700094010E94ED1018163CF06FEF87EC95E095
:101780000E9447052196ECCF8EE791E0CB30D10542
:1017900024F40E94FA092196F7CF0E94FA0984E600
:1017A000E816F10424F48EE791E00E94FA09C701DB
:1017B0000E947B0982E791E00E94FA09E090B70459
:1017C000F090B80481E00E94FF0984E791E00E9454
:1017D000FA09C701B8010E94510D072E000C880BB1
:1017E000990B0E94F4100E940E0E4B015C01C1E0A7
:1017F000D0E0BE010D2E000C880B990B0E94F41056
:10180000A50194010E94ED1018163CF06FEF87ECD3
:1018100095E00E9447052196ECCF8EE791E0CB3012
:10182000D10524F40E94FA092196F7CF0E94FA0903
:1018300084E6E816F10424F48EE791E00E94FA09A8
:10184000C7010E947B0982E791E00E94FA09E090BB
:10185000B904F090BA0482E00E94FF098AE791E09F
:101860000E94FA09C701B8010E94510D072E000C11
:10187000880B990B0E94F4100E940E0E4B015C0124
:10188000C1E0D0E0BE010D2E000C880B990B0E9428
:10189000F410A50194010E94ED1018163CF06FEFB2
:1018A00087EC95E00E9447052196ECCF8EE791E00A
:1018B000CB30D10524F40E94FA092196F7CF0E947B
:1018C000FA0984E6E816F10424F48EE791E00E9418
:1018D000FA09C7010E947B0982E791E00E94FA0998
:1018E000C091B304D091B404E090B104F090B2047C
:1018F00083E00E94FF0980E891E00E94FA0986E8EF
:1019000091E00E94FA0984E6E816F10424F48EE7D7
:1019100091E00E94FA09C7010E947B098BE891E0DF
:101920000E94FA09C436D10524F48EE791E00E94A2
:10193000FA09CE010E947B098091B004882331F01E
:1019400081E991E00E94360A1092B0048091AE04C1
:101950009091AF040197C9F583EA91E00E94360A9D
:10196000C4E5D2E06881798186E00E94EF026A8155
:101970007B8189E00E94EF026C817D818AE00E9478
:10198000EF020E94BD0A269684E0CC3AD80751F7B0
:10199000C6EAD4E06881798186E00E94EF026A811C
:1019A0007B8189E00E94EF026C817D818AE00E9448
:1019B000EF020E94BD0A269782E0CE34D80751F785
:1019C0008DEB91E00E94360A07C06091AC047091E3
:1019D000AD0486E00E94EF020E947401A6CECF9370
:1019E000DF93EAE2F5E01382128288EE93E0A0E052
:1019F000B0E084839583A683B7832EE031E0318302
:101A0000208325EC30E03587248724EC30E03787CD
:101A1000268720EC30E0318B208B21EC30E0338BBB
:101A2000228B22EC30E0358B248B26EC30E0378B98
:101A3000268B118E128E138E148EEDEDF5E013822F
:101A4000128284839583A683B7838EE191E091838C
:101A50008083C7ECD5E01B821A828EE291E09983E5
:101A600088831C868EE00E9465099E878D87E2EB45
:101A7000F0E0E491EF878FE00E946509998B888BF5
:101A8000E3EBF0E0E491EA8B80E10E9465099C8B36
:101A90008B8BE4EBF0E0E491ED8B1C82DF91CF9136
:101AA000089597FB072E16F4009407D077FD09D010
:101AB0000E94870D07FC05D03EF4909581959F4FBD
:101AC0000895709561957F4F0895A1E21A2EAA1B83
:101AD000BB1BFD010DC0AA1FBB1FEE1FFF1FA217DE
:101AE000B307E407F50720F0A21BB30BE40BF50BDB
:101AF000661F771F881F991F1A9469F76095709564
:101B0000809590959B01AC01BD01CF010895AA1B62
:101B1000BB1B51E107C0AA1FBB1FA617B70710F0D8
:101B2000A61BB70B881F991F5A95A9F7809590950A
:101B3000BC01CD010895EE0FFF1F0590F491E02D3B
:101B400009945058BB27AA270E94B90D0C94D711AD
:101B50000E94C91138F00E94D01120F039F49F3F43
:101B600019F426F40C94C6110EF4E095E7FB0C94DE
:101B7000C011E92F0E94E81158F3BA1762077307E2
:101B80008407950720F079F4A6F50C940A120EF458
:101B9000E0950B2EBA2FA02D0B01B90190010C017D
:101BA000CA01A0011124FF27591B99F0593F50F495
:101BB000503E68F11A16F040A22F232F342F4427ED
:101BC000585FF3CF469537952795A795F0405395E5
:101BD000C9F77EF41F16BA0B620B730B840BBAF0B5
:101BE0009150A1F0FF0FBB1F661F771F881FC2F720
:101BF0000EC0BA0F621F731F841F48F48795779534
:101C00006795B795F7959E3F08F0B0CF9395880FED
:101C100008F09927EE0F9795879508950E94840EF6
:101C200090F09F3748F4911116F40C940B1260E079
:101C300070E080E89FE3089526F01B16611D711D7A
:101C4000811D0C945B0E0C94760E0E942C0E6894F1
:101C5000B1110C940B1208950E94F01188F09F5757
:101C600098F0B92F9927B751B0F0E1F0660F771FC0
:101C7000881F991F1AF0BA95C9F714C0B13091F0B6
:101C80000E940A12B1E008950C940A12672F782F6F
:101C90008827B85F39F0B93FCCF38695779567957B
:101CA000B395D9F73EF490958095709561957F4FE7
:101CB0008F4F9F4F0895882371F4772321F0985018
:101CC000872B762F07C0662311F499270DC09051FA
:101CD000862B70E060E02AF09A95660F771F881FC8
:101CE000DAF7880F9695879597F908959F3F31F019
:101CF000915020F4879577956795B795880F911D3A
:101D00009695879597F908950E94F011A0F0BEE787
:101D1000B91788F4BB279F3860F41616B11D672FDA
:101D2000782F8827985FF7CF869577956795B11DAF
:101D300093959639C8F30895CF93DF938230910538
:101D400010F482E090E0E091EB05F091EC0520E0EA
:101D500030E0C0E0D0E0309711F140815181481768
:101D60005907C0F04817590761F482819381209781
:101D700019F09B838A832BC09093EC058093EB052D
:101D800026C02115310519F04217530718F49A019E
:101D9000BE01DF01EF010280F381E02DDCCF2115D0
:101DA000310509F1281B390B2430310590F41296C6
:101DB0008D919C9113976115710521F0FB0193831F
:101DC000828304C09093EC058093EB05FD0132966D
:101DD00044C0FD01E20FF31F81939193225031091A
:101DE0002D933C933AC02091E9053091EA05232BCD
:101DF00041F420910601309107013093EA052093C8
:101E0000E90520910401309105012115310541F4C6
:101E10002DB73EB74091080150910901241B350BA5
:101E2000E091E905F091EA05E217F307A0F42E1B13
:101E30003F0B2817390778F0AC014E5F5F4F24172E
:101E4000350748F04E0F5F1F5093EA054093E905B0
:101E50008193919302C0E0E0F0E0CF01DF91CF9158
:101E600008950F931F93CF93DF93009709F48CC0CD
:101E7000FC013297138212820091EB051091EC0560
:101E80000115110581F420813181820F931F20916A
:101E9000E9053091EA052817390779F5F093EA0545
:101EA000E093E90571C0D80140E050E0AE17BF07EC
:101EB00050F412962D913C911397AD0121153105E7
:101EC00009F1D901F3CF9D01DA01338322836081C7
:101ED0007181860F971F8217930769F4EC0128819F
:101EE0003981260F371F2E5F3F4F318320838A8130
:101EF0009B8193838283452B29F4F093EC05E09337
:101F0000EB0542C01396FC93EE931297ED014991B5
:101F100059919E01240F351FE217F30771F4808158
:101F20009181840F951F029611969C938E938281C6
:101F3000938113969C938E931297E0E0F0E0D80182
:101F400012968D919C911397009719F0F8018C01CE
:101F5000F6CF8D919C9198012E5F3F4F820F931F7A
:101F60002091E9053091EA052817390769F430977F
:101F700029F41092EC051092EB0502C01382128234
:101F80001093EA050093E905DF91CF911F910F911E
:101F90000895A0E0B0E0EFECFFE00C941512EC0126
:101FA000009721F4CB010E949C0EB8C0FC01E60F03
:101FB000F71F9C0122503109E217F30708F4ACC067
:101FC000D9010D911C91119706171707B0F0053034
:101FD000110508F49FC0C80104978617970708F4F5
:101FE00099C002501109061B170B019311936D93B1
:101FF0007C93CF010E94310F8DC05B01A01AB10A02
:102000004C01800E911EA091EB05B091EC0540E0D3
:1020100050E0E12CF12C109709F44AC0A815B9053D
:10202000D1F56D907C901197630182E0C80ED11CB0
:10203000CA14DB0480F1A3014A195B096A0182E03A
:10204000C80ED11C1296BC9012971396AC91B5E0B5
:10205000CB16D10440F0B282A38351834083D901CF
:102060006D937C930AC00E5F1F4FC301800F911FB9
:10207000F90191838083EB2DFA2FE114F10431F003
:10208000D7011396FC93EE93129744C0F093EC059E
:10209000E093EB053FC08D919C911197481759072C
:1020A00008F4AC017D0112960D90BC91A02DB3CF28
:1020B0008091E9059091EA0588159905E1F44617A4
:1020C0005707C8F48091040190910501009741F4ED
:1020D0008DB79EB74091080150910901841B950B63
:1020E000E817F907C8F4F093EA05E093E905F90168
:1020F000718360830FC0CB010E949C0E7C0100970E
:1021000059F0A801BE010E949810CE010E94310F23
:10211000C70104C0CE0102C080E090E0CDB7DEB7B9
:10212000EEE00C94311281E090E0F8940C944812A7
:10213000FB01DC0102C001900D9241505040D8F7E4
:102140000895FB01DC018D91019080190110D9F3F4
:10215000990B0895FB01DC0101900D920020E1F73D
:1021600008951F93FC0199278827BC01E8941191D9
:102170001032E9F3193010F01E30C8F31B3251F061
:102180001D3249F4689406C00E94D810610F711D79
:10219000811D911D119110531A30B0F33EF49095AA
:1021A0008095709561957F4F8F4F9F4F1F91089538
:1021B000592F482F372F262F660F771F881F991FFB
:1021C000660F771F881F991F620F731F841F951F4B
:1021D000660F771F881F991F08950E942F1108F41A
:1021E00081E00895E89409C097FB3EF490958095AE
:1021F000709561957F4F8F4F9F4F9923A9F0F92FCD
:1022000096E9BB279395F695879577956795B7954A
:10221000F111F8CFFAF4BB0F11F460FF1BC06F5F30
:102220007F4F8F4F9F4F16C0882311F096E911C042
:10223000772321F09EE8872F762F05C0662371F063
:1022400096E8862F70E060E02AF09A95660F771F77
:10225000881FDAF7880F9695879597F90895990F53
:102260000008550FAA0BE0E8FEEF16161706E80760
:10227000F907C0F012161306E407F50798F0621B81
:10228000730B840B950B39F40A2661F0232B242B56
:10229000252B21F408950A2609F4A140A6958FEF75
:1022A000811D811D08950E9466110C94D7110E9412
:1022B000C91138F00E94D01120F0952311F00C9430
:1022C000C0110C94C61111240C940B120E94E81139
:1022D00070F3959FC1F3950F50E0551F629FF00179
:1022E000729FBB27F00DB11D639FAA27F00DB11D92
:1022F000AA1F649F6627B00DA11D661F829F22271B
:10230000B00DA11D621F739FB00DA11D621F839FA1
:10231000A00D611D221F749F3327A00D611D231F77
:10232000849F600D211D822F762F6A2F11249F57C5
:1023300050409AF0F1F088234AF0EE0FFF1FBB1FC8
:10234000661F771F881F91505040A9F79E3F510587
:1023500080F00C94C0110C940B125F3FE4F3983E94
:10236000D4F3869577956795B795F795E7959F5F31
:10237000C1F7FE2B880F911D9695879597F90895C3
:1023800097F99F6780E870E060E008959FEF80EC28
:10239000089500240A9416161706180609060895CB
:1023A00000240A9412161306140605060895092E31
:1023B0000394000C11F4882352F0BB0F40F4BF2BA0
:1023C00011F460FF04C06F5F7F4F8F4F9F4F0895E0
:1023D00057FD9058440F551F59F05F3F71F04795D6
:1023E000880F97FB991F61F09F3F79F087950895BB
:1023F000121613061406551FF2CF4695F1DF08C0DA
:10240000161617061806991FF1CF869571056105F6
:1024100008940895E894BB2766277727CB0197F99E
:1024200008952F923F924F925F926F927F928F9278
:102430009F92AF92BF92CF92DF92EF92FF920F9353
:102440001F93CF93DF93CDB7DEB7CA1BDB0B0FB65D
:10245000F894DEBF0FBECDBF09942A88398848881A
:102460005F846E847D848C849B84AA84B984C884B0
:10247000DF80EE80FD800C811B81AA81B981CE0FA7
:10248000D11D0FB6F894DEBF0FBECDBFED0108958C
:04249000F894FFCFEE
:10249400320032000000ED058000000000000B0156
:1024A4008700D400B200C6005201000000003405C9
:1024B400200519051605130512050000000047053F
:1024C4008700740846054505A10553797374656D45
:1024D40020537461727465642E2E2E0053657474D7
:1024E400696E672050696E732E2E2E004C43442073
:1024F40053657474696E67732E2E2E0043505525F0
:102504002000250047505525200052414D2520002C
:1025140054454D502000435055200020475055202D
:102524000053455454494E472046414E205350458C
:10253400454400524F4C4C494E4720475241444970
:10254400454E542053544152542E2E2E00524F4C7B
:102554004C494E47204752414449454E5420454E2C
:10256400442E2E2E006C656473004C45442054594F
:1025740050453A200047454E45524154494E472064
:102584004752414449454E542E2E2E004752414451
:1025940049454E542047454E4552415445442E2EFC
:1025A4002E0066616E730073746174006C6F6164F5
:1025B4000074656D7000494E205748494C45000D24
:0225C4000A000B
:00000001FF
