:100000000C945D000C9485000C9485000C94850084
:100010000C9485000C9485000C9485000C9485004C
:100020000C9485000C9485000C9485000C9485003C
:100030000C9485000C9485000C9485000C9485002C
:100040000C9422060C9485000C940C050C94E60488
:100050000C9485000C9485000C9485000C9485000C
:100060000C946C060C94850000000008000201004E
:100070000003040700000000000000000000000072
:10008000250028002B0000000000240027002A0083
:10009000040404040404040402020202020203032E
:1000A0000303030301020408102040800102040836
:1000B0001020010204081020D40A11241FBECFEF23
:1000C000D8E0DEBFCDBF11E0A0E0B1E0ECEEF3E29E
:1000D00002C005900D92AE3AB107D9F725E0AEEA1D
:1000E000B1E001C01D92A936B207E1F710E0CDE5FD
:1000F000D0E004C02197FE010E94B40DCC35D10799
:10010000C9F70E94360B0C94F4110C940000FC010A
:10011000918D828D981761F0828DDF01A80FB11D3E
:100120005D968C91928D9F5F9F73928F90E0089562
:100130008FEF9FEF0895FC01918D828D981731F01C
:10014000828DE80FF11D858D90E008958FEF9FEF70
:100150000895FC01918D228D892F90E0805C9F4F46
:10016000821B91098F739927089586EA94E00E9473
:10017000A90021E0892B09F420E0822F0895FC01D9
:10018000848DDF01A80FB11DA35ABF4F2C91848D20
:1001900090E001968F739927848FA689B7892C9355
:1001A000A089B1898C9180648C93938D848D9813F0
:1001B00006C00288F389E02D80818F7D80830895B9
:1001C000EF92FF920F931F93CF93DF93EC0181E0A7
:1001D000888F9B8D8C8D981305C0E889F989808163
:1001E00085FD24C0F62E0B8D10E00F5F1F4F0F739F
:1001F0001127E02E8C8DE8120CC00FB607FCFACF49
:10020000E889F989808185FFF5CFCE010E94BF0082
:10021000F1CF8B8DFE01E80FF11DE35AFF4FF08205
:100220000B8FEA89FB898081806207C0EE89FF8994
:100230006083E889F98980818064808381E090E02F
:10024000DF91CF911F910F91FF90EF900895CF9381
:10025000DF93EC01888D8823C9F0EA89FB898081CE
:1002600085FD05C0A889B9898C9186FD0FC00FB6A0
:1002700007FCF5CF808185FFF2CFA889B9898C91E1
:1002800085FFEDCFCE010E94BF00E7CFDF91CF9178
:1002900008953FB7F8948091360290913702A0916B
:1002A0003802B091390226B5A89B05C02F3F19F03E
:1002B0000196A11DB11D3FBFBA2FA92F982F8827E6
:1002C000820F911DA11DB11DBC01CD0142E0660F41
:1002D000771F881F991F4A95D1F7089585ED809360
:1002E000BC008091BC0084FDFCCF10920F020895E9
:1002F0004091E901262F30E0240F311D21323105D4
:10030000DCF420910F022430C9F4FC0180E090E07D
:10031000861758F43091E9012191DC01A953BE4FB1
:10032000A30FB11D2C930196F3CF8091E901680FC3
:100330006093E90180E0089581E0089582E00895E6
:1003400008958FEF9FEF08958FEF9FEF08958091AD
:10035000C60190E09195819591090895CF93DF931F
:1003600000D0CDB7DEB7CB01642F49835A830E94FA
:1003700078014981842F5A81952F0F900F90DF913A
:10038000CF910895CF93DF931F92CDB7DEB76983E6
:1003900061E0CE0101960E94780181E090E00F902B
:1003A000DF91CF91089508950895DC01ED91FC91BE
:1003B0000284F385E02D41E0099581E090E0089505
:1003C000089508950895CF93DF93FC0184858823D1
:1003D000B1F02289A089B1898785C585D6853FB7C7
:1003E000F894988180958923888388E09C91922B4A
:1003F0009C939C9192279C938150C1F73FBF228987
:10040000A089B1893785C585D68588E0732F709519
:10041000522F50954FB7F894988167FF02C0932BE5
:1004200001C097239883660F9C91922B9C939C917B
:1004300095239C934FBF815069F79FB7F894A38988
:10044000B4892C918589822B8C93A389B4892C91B2
:10045000858982278C939FBFDF91CF910895FF926A
:100460000F931F93CF93DF938C01C62FD0E04130C1
:1004700021F0F12C423069F002C024E0F22E9E01FE
:1004800035952795622F687760686F29C8010E94AB
:10049000E30183E0CC0FDD1F8A95E1F7C877C068E0
:1004A0006C2F6F29C8010E94E301F801848588231D
:1004B00019F083E290E002C08FE390E00197F1F73A
:1004C000DF91CF911F910F91FF9008952F923F924E
:1004D0004F925F926F927F928F929F92AF92BF9254
:1004E000CF92DF92EF92FF920F931F93CF93DF9300
:1004F000CDB7DEB7AA970FB6F894DEBF0FBECDBF5B
:100500006AE29E012F5F3F4F7901C9010E94C6092F
:10051000C7010E94230A1E2D0F2D6EE3CE01079600
:100520000E94C6098F819885892B41F06BE471E0A8
:10053000CE0107960E9443098823E9F0CE01079671
:100540000E94230AAA960FB6F894DEBF0FBECDBF55
:10055000DF91CF911F910F91FF90EF90DF90CF909F
:10056000BF90AF909F908F907F906F905F904F90D3
:100570003F902F9008951A8219821C821B821E823E
:100580001D8240E050E06BE471E0812F902F0E94CB
:100590009B096AE371E0CE0107960E944309882314
:1005A00009F42DC181E0809396046AE3CE010D9693
:1005B0000E94C609CE010D960E9438096B017C018C
:1005C000CE010D960E94230AD0929504C092940405
:1005D000CA94CD2809F001C17EEAC72E71E0D72E5A
:1005E000E12CF12C6CE2CE010D960E94C609BE01F1
:1005F000635F7F4F812F902F0E946209CE010D967D
:100600000E94230A83E0E816F10444F4812F902F1E
:100610000E943809D6016D937C9308C0812F902FDA
:100620000E943809F601369771836083812F902FDD
:100630000E94160ABFEFEB1AFB0AE2E0CE0ED11CB5
:10064000F6E0EF16F10471F6A090AE01B090AF01A4
:10065000E091B001F091B1012091B2013091B3016C
:100660008091BA019091BB018A199B0954E6E52E4D
:10067000F12CB7010E946A0D7A8F698F8091BC01BD
:100680009091BD018E1B9F0BB7010E946A0D7C8F5C
:100690006B8F8091BE019091BF01821B930BB701BC
:1006A0000E946A0D7E8F6D8F6AE3E62E62E0F62E61
:1006B0001C8A1B8A212C312CC12CD12CC501BB0CCE
:1006C000AA0BBB0B8F8F98A3A9A3BAA3CF01FF0FCF
:1006D000AA0BBB0B8BA39CA3ADA3BEA3C901330F75
:1006E000AA0BBB0B8FA398A7A9A7BAA7B6010D2C7D
:1006F000000C880B990B0E940D110E94270E6D8B28
:100700007E8B8F8B988FB101032C000C880B990B7B
:100710000E940D110E94270E2B013C01AB89BC8960
:10072000BD01BB0F880B990B0E940D110E94270E73
:100730004B015C016F8D78A189A19AA10E940D11D6
:100740009B01AC016D897E898F89988D0E94BB0DBC
:100750000E943E0EF701718360836BA17CA18DA185
:100760009EA10E940D119B01AC01C301B2010E9428
:10077000BB0D0E943E0ED70113967C936E93129789
:100780006FA178A589A59AA50E940D119B01AC01C6
:10079000C501B4010E94BB0D0E943E0EF701758396
:1007A0006483298D3A8DC20ED31E8B8D9C8D280EAD
:1007B000391EAB89BC89ED8DFE8DAE0FBF1FBC8B82
:1007C000AB8BF6E0EF0EF11C22E9E21624E0F20614
:1007D00009F08CCF1092960442C06CE2CE010D96C7
:1007E0000E94C609CE010D960E94380970939304A9
:1007F00060939204CE010D960E94230A30C06FE3ED
:1008000071E0CE0107960E944309882391F181E0AF
:100810008093970440E0E42E41E0F42E6CE2CE0198
:100820000D960E94C609BE01635F7F4F812F902FF6
:100830000E946209CE010D960E94230A812F902FFB
:100840000E943809D7016D937D937D01812F902FF0
:100850000E94160AB4E0EB16B1E0FB06F9F66BE372
:10086000CE010D960E94C609CE010D960E94230A64
:100870009EC064E471E0CE0107960E94430988237C
:1008800009F495C04B855C856F81788586EA94E094
:100890000E94780869E471E086EA94E00E94280AE0
:1008A00032E0C32ED12C6AE3CE010D960E94C60918
:1008B000BE01635F7F4F812F902F0E946209CE019E
:1008C0000D960E94230A6CE471E0812F902F0E9404
:1008D0004309882379F19CE9E92E94E0F92E6CE232
:1008E000CE010D960E94C609BE01635F7F4F812F26
:1008F000902F0E946209CE010D960E94230A812F3B
:10090000902F0E943809F701619371937F01812F25
:10091000902F0E94160AF2EAEF16F4E0FF06F9F6AD
:100920006BE3CE010D960E94C609CE010D960E9482
:10093000230A2DC061E571E0812F902F0E944309A9
:10094000882329F188E9E82E84E0F82E6CE2CE01B4
:100950000D960E94C609BE01635F7F4F812F902FC5
:100960000E946209CE010D960E94230A812F902FCA
:100970000E943809D7016D937D937D01812F902FBF
:100980000E94160ABCE9EB16B4E0FB06F9F66BE32D
:10099000CE010D960E94C609CE010D960E94230A33
:1009A000CA94CD2821F0CC24C394D12C7CCF812FA4
:1009B000902F0E94230ACE0107960E94230AADCDF4
:1009C0000E94B50081110C94660208951F920F9247
:1009D0000FB60F9211242F933F934F935F936F9312
:1009E0007F938F939F93AF93BF93EF93FF9386EA89
:1009F00094E00E94BF00FF91EF91BF91AF919F9152
:100A00008F917F916F915F914F913F912F910F90B7
:100A10000FBE0F901F9018951F920F920FB60F9256
:100A200011242F938F939F93EF93FF93E091B6043C
:100A3000F091B7048081E091BC04F091BD0482FD87
:100A400012C090818091BF048F5F8F732091C0048A
:100A5000821751F0E091BF04F0E0EA55FB4F958F0B
:100A60008093BF0401C08081FF91EF919F918F918E
:100A70002F910F900FBE0F901F90189590E0FC01E2
:100A8000E859FF4F3491FC01EC55FF4F2491FC01D4
:100A9000E057FF4FE491EE2309F43BC0332339F1D3
:100AA000333091F038F43130A9F0323001F584B5AB
:100AB0008F7D12C0373091F03830A1F03430B9F466
:100AC000809180008F7D03C0809180008F7780931C
:100AD00080000DC084B58F7784BD09C08091B000BF
:100AE0008F7703C08091B0008F7D8093B000F0E0DD
:100AF000EE0FFF1FE458FF4FA591B4918FB7F89404
:100B0000EC91611103C020952E2301C02E2B2C9354
:100B10008FBF08951F93CF93DF93182FEB010E948F
:100B20000309209711F460E004C0CF3FD10539F4E8
:100B300061E0812FDF91CF911F910C943E05E12F51
:100B4000F0E0E859FF4FE491E330F9F048F4E13088
:100B5000B9F0E230A1F584B5806284BDC8BD34C06F
:100B6000E730E9F0E83019F1E43049F58091800090
:100B7000806280938000D0938B00C0938A0024C051
:100B800084B5806884BDC7BD1FC080918000806827
:100B900080938000D0938900C093880015C0809115
:100BA000B00080688093B000C093B3000DC0809106
:100BB000B00080628093B000C093B40005C0C0381C
:100BC000D1050CF0B5CFAFCFDF91CF911F91089534
:100BD0008F929F92AF92BF92CF92DF92EF92FF924D
:100BE0006B017C010E9449014B015C01C114D104DD
:100BF000E104F104F1F00E944901DC01CB01881904
:100C00009909AA09BB09883E9340A105B10570F373
:100C100021E0C21AD108E108F10888EE880E83E0CD
:100C2000981EA11CB11CC114D104E104F10419F7F0
:100C3000DDCFFF90EF90DF90CF90BF90AF909F906F
:100C40008F9008951F920F920FB60F9211242F9339
:100C50003F938F939F93AF93BF938091A204909102
:100C6000A304A091A404B091A5043091350223E01F
:100C7000230F2D3720F40196A11DB11D05C026E8D4
:100C8000230F0296A11DB11D209335028093A2046B
:100C90009093A304A093A404B093A504809136027A
:100CA00090913702A0913802B09139020196A11DAE
:100CB000B11D8093360290933702A0933802B0930F
:100CC0003902BF91AF919F918F913F912F910F90DA
:100CD0000FBE0F901F9018951F920F920FB60F9294
:100CE00011242F933F934F935F936F937F938F9331
:100CF0009F93AF93BF93EF93FF938091B900887F49
:100D0000803609F49CC068F5883209F45BC090F421
:100D1000803109F454C038F4882309F4F6C08830CF
:100D200009F44DC0F6C0883109F44CC0803209F492
:100D30005DC0EFC0803409F468C048F4803309F422
:100D400055C0883309F0E5C080930E02D8C08035C5
:100D500009F44FC0883509F45DC0883409F0D9C062
:100D6000D6C0883909F4C7C0A8F4883709F467C029
:100D700038F4883609F463C0803709F460C0C9C00C
:100D8000883809F4B8C0803909F45FC0803809F0A8
:100D9000C0C05BC0803B09F486C038F4803A09F4D7
:100DA00066C0883A09F47FC0B4C0803C09F4A7C08B
:100DB000883C09F4A4C0883B09F48AC0AAC0809189
:100DC000340210C09091330280913202981770F56E
:100DD000E091330281E08E0F80933302F0E0EE5E0B
:100DE000FD4F80818093BB0085EC86C080930E020E
:100DF0008EC0E091330281E08E0F809333028091A8
:100E0000BB00F0E0EE5EFD4F808390913302809155
:100E100032026EC0E091330281E08E0F8093330284
:100E20008091BB00F0E0EE5EFD4F80838091110267
:100E300081116DC081E08093100284EA61C083E07B
:100E400080930F0210920D02CFCF80910D0280325D
:100E500008F051C0E0910D0281E08E0F80930D02E9
:100E60008091BB00F0E0E351FE4F8083BDCF85EC65
:100E70008093BC0010920F0280910D02803230F4FA
:100E8000E0910D02F0E0E351FE4F108260910D02FF
:100E900070E0E091EB01F091EC018DEE91E00995AD
:100EA00010920D0236C084E080930F021092EA0186
:100EB0001092E901E091E701F091E8010995809134
:100EC000E901811105C081E08093E9011092C70119
:100ED000E091EA0181E08E0F8093EA01F0E0E953AE
:100EE000FE4F80818093BB009091EA018091E901DF
:100EF000981708F479CF85E88093BC000AC085EC88
:100F00008093BC0010920F0204C010920E020E9447
:100F10006E01FF91EF91BF91AF919F918F917F9162
:100F20006F915F914F913F912F910F900FBE0F9056
:100F30001F901895DC01ED91FC910284F385E02D62
:100F400040E009940F931F93CF93DF93EC0142305D
:100F500018F08C8188608C834F836887222329F066
:100F6000413019F48C8184608C8364E670E080E009
:100F700090E00E94E8056C8164FD31C0E881F98150
:100F80000284F385E02D42E063E0CE0109958BE415
:100F900096E40197F1F7E881F9810284F385E02D69
:100FA00042E063E0CE01099503E512E0C801019734
:100FB000F1F7E881F9810284F385E02D42E063E0F6
:100FC000CE010995C8010197F1F7E881F981028402
:100FD000F385E02D42E062E0CE01099517C0606222
:100FE000CE010E949A078BE496E40197F1F76C8199
:100FF0006062CE010E949A0703E512E0C8010197E2
:10100000F1F76C816062CE010E949A07C8010197D6
:10101000F1F76C816062CE010E949A078BEE90E03E
:101020000197F1F784E08D836CE0CE010E949A076E
:1010300061E0CE010E949A078BE39FE10197F1F7EF
:1010400082E08E8366E0CE010E949A07E881F981F2
:101050000084F185E02D6FEFCE01DF91CF911F91DC
:101060000F9109942FB7F8948091A2049091A30452
:10107000A091A404B091A5042FBF8093AE049093D7
:10108000AF04A093B004B093B104E091A604F09132
:10109000A7040680F781E02D86EA94E0099597FF82
:1010A00026C02FB7F8948091A2049091A304A09138
:1010B000A404B091A5042FBF4091AE045091AF0499
:1010C0006091B0047091B104841B950BA60BB70B13
:1010D0004091AA045091AB046091AC047091AD04AE
:1010E00084179507A607B70780F28FEF9FEF089543
:1010F000CF92DF92EF92FF920F931F93CF93DF93E4
:101100006C017A018B01C0E0D0E0CE15DF0589F0DB
:10111000D8016D918D01D601ED91FC910190F08186
:10112000E02DC6010995892B11F47E0102C021969C
:10113000ECCFC701DF91CF911F910F91FF90EF90FE
:10114000DF90CF900895CF93DF93CDB7DEB7289788
:101150000FB6F894DEBF0FBECDBF1D8290E49E8314
:1011600024E12F8324E5288719829A8390E19B83C9
:1011700090E59C8320915605821710F08FEF820F27
:101180003091570590E0FE01E80FF91F303121F44E
:10119000243011F4618101C0658160688FE495E0BD
:1011A00028960FB6F894DEBF0FBECDBFDF91CF916A
:1011B0000C949A070E94AC100F931F93CF93DF9368
:1011C000EC0188819981009729F02A813B812617BB
:1011D000370788F48B016F5F7F4F0E94E20F009703
:1011E00061F0998388831B830A832C813D81232BA3
:1011F00011F4FC01108281E001C080E0DF91CF9109
:101200001F910F91089590E0FC01EC55FF4F249140
:10121000FC01E057FF4F8491882399F090E0880FFC
:10122000991FFC01EA57FF4FA591B491FC01E458C6
:10123000FF4F859194918FB7F894EC91E22BEC934A
:101240008FBF0895CF93C82F0E94030960E08C2FB1
:101250000E943E05EC2FF0E0E057FF4FE491F0E0F4
:10126000EE0FFF1FE458FF4F85919491CF910895A1
:10127000FC0180819181009711F00C94CA1060E00C
:1012800070E0CB010895FC0124813581232B31F4DA
:1012900021E061157105A1F0FB0108C0FC0180810E
:1012A00091816115710531F421E0FC018081882371
:1012B00039F005C00E94BA1021E0892B09F020E026
:1012C000822F08950F931F93CF93DF938C01EB012F
:1012D000FC01808191810097B1F06881798161156D
:1012E000710579F0428153812C813D81421753076A
:1012F00040F00E94C3108C819D81F8019583848306
:1013000013C00E944A0F88819981F80191838083DC
:101310008A819B81938382838C819D819583848341
:10132000198218821B821A821D821C82DF91CF9142
:101330001F910F910895EF92FF920F931F93CF93F8
:10134000DF93EC017B018A01BA010E94DC0828814D
:10135000398181110DC02115310519F0C9010E9493
:101360004A0F198218821D821C821B821A8206C0B3
:101370001D830C83B701C9010E94C310CE01DF9108
:10138000CF911F910F91FF90EF900895CF92DF9230
:10139000EF92FF920F931F93CF93DF9300D0CDB7BF
:1013A000DEB78C01C62EFC011182108213821282DC
:1013B0001582148240E050E06BE471E00E949B09CA
:1013C0000E9432080C2C000CDD0897FD23C08C1500
:1013D0009D0501F189831A82F801E480F580FFEF11
:1013E000EF1AFF0AB701C8010E94DC08882379F0D0
:1013F000F8012081318184819581BE016F5F7F4F2B
:10140000820F931F0E94C310F801F582E4820E94AC
:101410003208DBCFC8010F900F90DF91CF911F9161
:101420000F91FF90EF90DF90CF900895CF93DF93CF
:10143000EC0140E050E06BE471E00E949B09CE01BA
:10144000DF91CF910895FC01808191810C944A0F26
:101450006115710579F0FB0101900020E9F73197E2
:10146000AF01461B570BDC01ED91FC910280F3812B
:10147000E02D099480E090E008958F929F92AF92C2
:10148000BF92CF92DF92EF92FF920F931F93CF9371
:10149000DF93CDB7DEB7A1970FB6F894DEBF0FBECE
:1014A000CDBF6C01990FEE08FF08F7FE33C0E09145
:1014B0004F05F09150050190F081E02D6DE28FE431
:1014C00095E009958C0122273327A9012C193D09A4
:1014D0004E095F0919A2CE0181967C019AE0892EFE
:1014E000912CA12CB12CCA01B901A50194010E9433
:1014F0007E0D605DF70162937F0121153105410585
:10150000510589F7BF018FE495E00E94280A800FFA
:10151000911F1FC0A701960119A28E010F5D1F4FD9
:101520008AE0C82ED12CE12CF12CCA01B901A70107
:1015300096010E947E0D605DF80162938F01211576
:1015400031054105510589F7BF018FE495E00E94FF
:10155000280AA1960FB6F894DEBF0FBECDBFDF916B
:10156000CF911F910F91FF90EF90DF90CF90BF90A0
:10157000AF909F908F900895BC018FE495E00C94FC
:10158000280ACF93DF93BC0186EA94E00E94280AE0
:10159000EC0169E471E086EA94E00E94280A8C0F6D
:1015A0009D1FDF91CF910895CF93DF93E6EAF4E09A
:1015B0001382128288EE93E0A0E0B0E084839583EA
:1015C000A683B7832EE031E03183208325EC30E021
:1015D0003587248724EC30E03787268720EC30E0FD
:1015E000318B208B21EC30E0338B228B22EC30E0EE
:1015F000358B248B26EC30E0378B268B118E128EA8
:10160000138E148EE3E4F5E01382128284839583B3
:10161000A683B7838EE191E091838083CFE4D5E008
:101620001B821A828EE291E0998388831C868EE069
:101630000E9422099E878D87E2EBF0E0E491EF871C
:101640008FE00E942209998B888BE3EBF0E0E49114
:10165000EA8B80E10E9422099C8B8B8BE4EBF0E00B
:10166000E491ED8B1C82DF91CF910895789484B53D
:10167000826084BD84B5816084BD85B5826085BD8E
:1016800085B5816085BD80916E00816080936E001C
:10169000109281008091810082608093810080910E
:1016A00081008160809381008091800081608093BF
:1016B00080008091B10084608093B1008091B0007F
:1016C00081608093B00080917A00846080937A007A
:1016D00080917A00826080937A0080917A008160A4
:1016E00080937A0080917A00806880937A001092CB
:1016F000C100E091B604F091B70482E08083E091EC
:10170000B604F091B7041082E091B204F091B304F2
:101710001082E091B404F091B50480E180831092CE
:10172000BE04E091BA04F091BB0486E08083E091AE
:10173000B804F091B904808180618083E091B8049D
:10174000F091B904808188608083E091B804F091C1
:10175000B904808180688083E091B804F091B90475
:1017600080818F7D808386E591E00E94C10A88E6B2
:1017700091E00E94C10A83E00E94030985E00E9473
:10178000030986E00E94030989E00E9403098AE0B8
:101790000E94030988E791E00E94C10A20E044E02A
:1017A00064E18FE495E00E94A2070AE010E084E67D
:1017B000E82EF12C96E4D92EA0909C04B0909D04C4
:1017C00080E00E94A30888E891E00E94BC0AC5015D
:1017D000B8010E946A0D072E000C880B990B0E941D
:1017E0000D110E94270E2B013C01C1E0D0E0BE018B
:1017F0000D2E000C880B990B0E940D11A301920174
:101800000E94061118163CF06FEF8FE495E00E94DD
:10181000D5012196ECCF8AE991E0CB30D10524F4B3
:101820000E94BC0A2196F7CF0E94BC0A84E6A81643
:10183000B10424F48AE991E00E94BC0AC5010E9427
:101840003D0A8EE891E00E94BC0AA0909E04B090F0
:101850009F0481E00E94A30880E991E00E94BC0AF5
:10186000C501B8010E946A0D072E000C880B990B68
:101870000E940D110E94270E2B013C01C1E0D0E017
:10188000BE010D2E000C880B990B0E940D11A301B7
:1018900092010E94061118163CF06FEF8FE495E05C
:1018A0000E94D5012196ECCF8AE991E0CB30D10599
:1018B00024F40E94BC0A2196F7CF0E94BC0A84E659
:1018C000A816B10424F48AE991E00E94BC0AC5017B
:1018D0000E943D0A8EE891E00E94BC0AA090A004FC
:1018E000B090A10482E00E94A30886E991E00E94E2
:1018F000BC0AC501B8010E946A0D072E000C880BB6
:10190000990B0E940D110E94270E2B013C01C1E092
:10191000D0E0BE010D2E000C880B990B0E940D111A
:10192000A30192010E94061118163CF06FEF8FE49C
:1019300095E00E94D5012196ECCF8AE991E0CB3069
:10194000D10524F40E94BC0A2196F7CF0E94BC0A5C
:1019500084E6A816B10424F48AE991E00E94BC0A46
:10196000C5010E943D0A8EE891E00E94BC0AC09128
:101970009A04D0919B04A0909804B090990483E0BD
:101980000E94A3088CE991E00E94BC0A82EA91E0DF
:101990000E94BC0A84E6A816B10424F48AE991E006
:1019A0000E94BC0AC5010E943D0A87EA91E00E949C
:1019B000BC0AC436D10524F48AE991E00E94BC0A2D
:1019C000CE010E943D0A809197048823C9F090912E
:1019D000020180E0B7010E946A0DEB01219790910E
:1019E000000180E0B7010E946A0D6150710983E037
:1019F0000E948A05BE0185E00E948A051092970424
:101A000080919604882309F462C080919404909197
:101A100095040197E9F5CAE3D2E06881798186E00F
:101A20000E948A056A817B8189E00E948A056C8117
:101A30007D818AE00E948A0562E370E080E090E0A8
:101A40000E94E805269684E0C239D80731F7CCE831
:101A5000D4E06881798186E00E948A056A817B8171
:101A600089E00E948A056C817D818AE00E948A0556
:101A700062E370E080E090E00E94E805269782E053
:101A8000C433D80731F710929504109294041FC004
:101A90002091920430919304D0927C0080917A003E
:101AA000806480937A0080917A0086FDFCCF8091DB
:101AB00078004091790090E0942B2817390739F08D
:101AC000609192047091930486E00E948A050E94BE
:101AD000E00472CE97FB072E16F4009407D077FD32
:101AE00009D00E94A00D07FC05D03EF49095819589
:101AF0009F4F0895709561957F4F0895A1E21A2E2A
:101B0000AA1BBB1BFD010DC0AA1FBB1FEE1FFF1FA1
:101B1000A217B307E407F50720F0A21BB30BE40BF1
:101B2000F50B661F771F881F991F1A9469F7609538
:101B30007095809590959B01AC01BD01CF010895F2
:101B4000AA1BBB1B51E107C0AA1FBB1FA617B707E3
:101B500010F0A61BB70B881F991F5A95A9F78095FF
:101B60009095BC01CD010895EE0FFF1F0590F491F3
:101B7000E02D09945058BB27AA270E94D20D0C943F
:101B800083110E94751138F00E947C1120F039F405
:101B90009F3F19F426F40C9472110EF4E095E7FBC4
:101BA0000C946C11E92F0E94941158F3BA17620734
:101BB00073078407950720F079F4A6F50C94B61105
:101BC0000EF4E0950B2EBA2FA02D0B01B901900158
:101BD0000C01CA01A0011124FF27591B99F0593F9C
:101BE00050F4503E68F11A16F040A22F232F342FE4
:101BF0004427585FF3CF469537952795A795F04032
:101C00005395C9F77EF41F16BA0B620B730B840B46
:101C1000BAF09150A1F0FF0FBB1F661F771F881FFE
:101C2000C2F70EC0BA0F621F731F841F48F4879556
:101C300077956795B795F7959E3F08F0B0CF939548
:101C4000880F08F09927EE0F9795879508950E94C1
:101C50009D0E90F09F3748F4911116F40C94B71133
:101C600060E070E080E89FE3089526F01B16611D98
:101C7000711D811D0C94740E0C948F0E0E94450EE4
:101C80006894B1110C94B71108950E949C1188F0CA
:101C90009F5798F0B92F9927B751B0F0E1F0660F30
:101CA000771F881F991F1AF0BA95C9F714C0B13071
:101CB00091F00E94B611B1E008950C94B611672F0F
:101CC000782F8827B85F39F0B93FCCF386957795A0
:101CD0006795B395D9F73EF4909580957095619589
:101CE0007F4F8F4F9F4F0895882371F4772321F002
:101CF0009850872B762F07C0662311F499270DC0C3
:101D00009051862B70E060E02AF09A95660F771F5D
:101D1000881FDAF7880F9695879597F908959F3F62
:101D200031F0915020F4879577956795B795880F96
:101D3000911D9695879597F908950E949C11A0F0A2
:101D4000BEE7B91788F4BB279F3860F41616B11D9B
:101D5000672F782F8827985FF7CF869577956795B7
:101D6000B11D93959639C8F30895CF93DF938230D0
:101D7000910510F482E090E0E0916705F09168052C
:101D800020E030E0C0E0D0E0309711F14081518197
:101D900048175907C0F04817590761F482819381A9
:101DA000209719F09B838A832BC0909368058093BA
:101DB000670526C02115310519F04217530718F49D
:101DC0009A01BE01DF01EF010280F381E02DDCCF3B
:101DD0002115310509F1281B390B2430310590F408
:101DE00012968D919C9113976115710521F0FB015D
:101DF0009383828304C09093680580936705FD01F7
:101E0000329644C0FD01E20FF31F8193919322505B
:101E100031092D933C933AC02091650530916605B8
:101E2000232B41F420910601309107013093660580
:101E3000209365052091040130910501211531059C
:101E400041F42DB73EB74091080150910901241B80
:101E5000350BE0916505F0916605E217F307A0F4F4
:101E60002E1B3F0B2817390778F0AC014E5F5F4FF0
:101E70002417350748F04E0F5F1F509366054093B7
:101E800065058193919302C0E0E0F0E0CF01DF911E
:101E9000CF9108950F931F93CF93DF93009709F489
:101EA0008CC0FC0132971382128200916705109159
:101EB00068050115110581F420813181820F931F7E
:101EC00020916505309166052817390779F5F0935B
:101ED0006605E093650571C0D80140E050E0AE179B
:101EE000BF0750F412962D913C911397AD01211527
:101EF000310509F1D901F3CF9D01DA013383228342
:101F000060817181860F971F8217930769F4EC0136
:101F100028813981260F371F2E5F3F4F3183208361
:101F20008A819B8193838283452B29F4F0936805F2
:101F3000E093670542C01396FC93EE931297ED0170
:101F4000499159919E01240F351FE217F30771F44F
:101F500080819181840F951F029611969C938E9398
:101F60008281938113969C938E931297E0E0F0E028
:101F7000D80112968D919C911397009719F0F80152
:101F80008C01F6CF8D919C9198012E5F3F4F820F6F
:101F9000931F20916505309166052817390769F46C
:101FA000309729F4109268051092670502C01382D9
:101FB00012821093660500936505DF91CF911F9102
:101FC0000F910895A0E0B0E0E8EEFFE00C94C1119D
:101FD000EC01009721F4CB010E94B50EB8C0FC01C2
:101FE000E60FF71F9C0122503109E217F30708F4AE
:101FF000ACC0D9010D911C91119706171707B0F0CD
:102000000530110508F49FC0C8010497861797078B
:1020100008F499C002501109061B170B0193119384
:102020006D937C93CF010E944A0F8DC05B01A01A73
:10203000B10A4C01800E911EA0916705B091680510
:1020400040E050E0E12CF12C109709F44AC0A815AB
:10205000B905D1F56D907C901197630182E0C80EAF
:10206000D11CCA14DB0480F1A3014A195B096A017F
:1020700082E0C80ED11C1296BC9012971396AC91B8
:10208000B5E0CB16D10440F0B282A38351834083E4
:10209000D9016D937C930AC00E5F1F4FC301800F5F
:1020A000911FF90191838083EB2DFA2FE114F10444
:1020B00031F0D7011396FC93EE93129744C0F0933E
:1020C0006805E09367053FC08D919C911197481773
:1020D000590708F4AC017D0112960D90BC91A02D1A
:1020E000B3CF809165059091660588159905E1F457
:1020F00046175707C8F48091040190910501009795
:1021000041F48DB79EB74091080150910901841B9D
:10211000950BE817F907C8F4F0936605E093650599
:10212000F901718360830FC0CB010E94B50E7C0161
:10213000009759F0A801BE010E94B110CE010E9483
:102140004A0FC70104C0CE0102C080E090E0CDB7C5
:10215000DEB7EEE00C94DD1181E090E0F8940C9491
:10216000F411FB01DC0102C001900D92415050407E
:10217000D8F70895FB01DC018D91019080190110C1
:10218000D9F3990B0895FB01DC0101900D92002019
:10219000E1F708951F93FC0199278827BC01E89473
:1021A00011911032E9F3193010F01E30C8F31B32D0
:1021B00051F01D3249F4689406C00E94F110610F7D
:1021C000711D811D911D119110531A30B0F33EF411
:1021D00090958095709561957F4F8F4F9F4F1F9180
:1021E0000895592F482F372F262F660F771F881FE6
:1021F000991F660F771F881F991F620F731F841F17
:10220000951F660F771F881F991F08950E94481118
:1022100008F481E00895E89409C097FB3EF4909596
:102220008095709561957F4F8F4F9F4F9923A9F0AF
:10223000F92F96E9BB279395F6958795779567953E
:10224000B795F111F8CFFAF4BB0F11F460FF1BC082
:102250006F5F7F4F8F4F9F4F16C0882311F096E915
:1022600011C0772321F09EE8872F762F05C06623C3
:1022700071F096E8862F70E060E02AF09A95660F7C
:10228000771F881FDAF7880F9695879597F9089535
:10229000990F0008550FAA0BE0E8FEEF1616170677
:1022A000E807F907C0F012161306E407F50798F0DF
:1022B000621B730B840B950B39F40A2661F0232BF8
:1022C000242B252B21F408950A2609F4A140A69574
:1022D0008FEF811D811D089597F99F6780E870E059
:1022E00060E008959FEF80EC089500240A9416168C
:1022F000170618060906089500240A9412161306F4
:10230000140605060895092E0394000C11F4882381
:1023100052F0BB0F40F4BF2B11F460FF04C06F5F9D
:102320007F4F8F4F9F4F089557FD9058440F551F73
:1023300059F05F3F71F04795880F97FB991F61F047
:102340009F3F79F087950895121613061406551FBE
:10235000F2CF4695F1DF08C0161617061806991F2A
:10236000F1CF86957105610508940895E894BB271F
:1023700066277727CB0197F908952F923F924F92C6
:102380005F926F927F928F929F92AF92BF92CF9205
:10239000DF92EF92FF920F931F93CF93DF93CDB70E
:1023A000DEB7CA1BDB0B0FB6F894DEBF0FBECDBF86
:1023B00009942A88398848885F846E847D848C8457
:1023C0009B84AA84B984C884DF80EE80FD800C8160
:1023D0001B81AA81B981CE0FD11D0FB6F894DEBF43
:0C23E0000FBECDBFED010895F894FFCFB3
:1023EC003200320000006905800000000000E000AF
:1023FC007808A90087009B00270100000000C2019B
:10240C00AE01A701A401A101A00100000000D501AB
:10241C007808A207D401D3012F026C65647300669F
:10242C00616E730073746174000D0A006C6F6164EB
:10243C000074656D700053797374656D205374610D
:10244C00727465642E2E2E0053657474696E672049
:10245C0050696E732E2E2E004C43442053657474B9
:10246C00696E67732E2E2E004350552520002500D3
:10247C0047505525200052414D25200054454D50C4
:0E248C002000435055200020475055200000EE
:107E0000112484B714BE81FFF0D085E080938100F7
:107E100082E08093C00088E18093C10086E0809377
:107E2000C20080E18093C4008EE0C9D0259A86E02C
:107E300020E33CEF91E0309385002093840096BBD3
:107E4000B09BFECF1D9AA8958150A9F7CC24DD24C4
:107E500088248394B5E0AB2EA1E19A2EF3E0BF2EE7
:107E6000A2D0813461F49FD0082FAFD0023811F036
:107E7000013811F484E001C083E08DD089C08234E0
:107E800011F484E103C0853419F485E0A6D080C0E4
:107E9000853579F488D0E82EFF2485D0082F10E0AE
:107EA000102F00270E291F29000F111F8ED06801E7
:107EB0006FC0863521F484E090D080E0DECF843638
:107EC00009F040C070D06FD0082F6DD080E0C81688
:107ED00080E7D80618F4F601B7BEE895C0E0D1E017
:107EE00062D089930C17E1F7F0E0CF16F0E7DF06D8
:107EF00018F0F601B7BEE89568D007B600FCFDCFD4
:107F0000A601A0E0B1E02C9130E011968C91119780
:107F100090E0982F8827822B932B1296FA010C0160
:107F200087BEE89511244E5F5F4FF1E0A038BF0790
:107F300051F7F601A7BEE89507B600FCFDCF97BE46
:107F4000E89526C08437B1F42ED02DD0F82E2BD052
:107F50003CD0F601EF2C8F010F5F1F4F84911BD097
:107F6000EA94F801C1F70894C11CD11CFA94CF0C13
:107F7000D11C0EC0853739F428D08EE10CD085E9AC
:107F80000AD08FE07ACF813511F488E018D01DD067
:107F900080E101D065CF982F8091C00085FFFCCF94
:107FA0009093C60008958091C00087FFFCCF809118
:107FB000C00084FD01C0A8958091C6000895E0E648
:107FC000F0E098E1908380830895EDDF803219F02E
:107FD00088E0F5DFFFCF84E1DECF1F93182FE3DFCA
:107FE0001150E9F7F2DF1F91089580E0E8DFEE27F6
:047FF000FF270994CA
:027FFE00040479
:0400000300007E007B
:00000001FF
