:100000000C9404010C942C010C942C010C942C01E4
:100010000C942C010C942C010C942C010C942C01AC
:100020000C942C010C942C010C9487040C9407055F
:100030000C944B0F0C942C010C942C010C942C015F
:100040000C942C010C942C010C942C010C942C017C
:100050000C942C010C942C010C942C010C94A30AEC
:100060000C942C010C942C010C942C010C942C015C
:100070000C942C010C942C010C942C010C942C014C
:100080000C942C010C942C010C942C010C942C013C
:100090000C94ED0A0C942C010C942C010C942C0162
:1000A0000C942C010C942C010C942C019515951595
:1000B0009515A4154416521695159515A4154416B4
:1000C0000E09110900090409080932093209320927
:1000D000150919091D092309270932092D096C0978
:1000E0007109760980098A09D409D409D4099409C7
:1000F0009E09A809B209BF09D409C7090706050462
:100100000100080A0B0C0D09080B00020202010095
:10011000090400000102020000052400100105246A
:1001200001010104240206052406000107058103DC
:1001300010004009040100020A0000000705020245
:1001400040000007058302400000040309045370C7
:1001500061726B46756E00537061726B46756E20EE
:1001600050726F204D6963726F001201000200002F
:1001700000404F1B06920001010203011201000220
:10018000EF0201404F1B0692000101020301000033
:10019000000200090F0000030401000C0000000031
:1001A000000000000000000000000000000000004F
:1001B000250028002B002E00310000000000240044
:1001C00027002A002D003000040404040403040561
:1001D00002020202040302020202060606060606E4
:1001E00004040202020404040802011040804010CA
:1001F000204080408008020401804020100201104D
:10020000801020404020191711241FBECFEFDAE0E4
:10021000DEBFCDBF11E0A0E0B1E0E8EEF6E302C042
:1002200005900D92A83AB107D9F723E0A8EAB1E00A
:1002300001C01D92A535B207E1F711E0C4E0D1E09D
:1002400004C02197FE010E94161AC330D107C9F7D6
:100250000E942B110C94721B0C94000008950895B9
:10026000DC01ED91FC910284F385E02D41E00995DC
:1002700081E090E0089508950895CF93DF93FC0105
:1002800084858823B1F02289A089B1898785C585B5
:10029000D6853FB7F894988180958923888388E034
:1002A0009C91922B9C939C9192279C938150C1F797
:1002B0003FBF2289A089B1893785C585D68588E069
:1002C000732F7095522F50954FB7F894988167FF10
:1002D00002C0932B01C097239883660F9C91922BA9
:1002E0009C939C9195239C934FBF815069F79FB736
:1002F000F894A389B4892C918589822B8C93A38946
:10030000B4892C91858982278C939FBFDF91CF91EF
:100310000895FF920F931F93CF93DF938C01C62F05
:10032000D0E0413021F0F12C423069F002C024E0ED
:10033000F22E9E0135952795622F687760686F29A8
:10034000C8010E943D0183E0CC0FDD1F8A95E1F7D3
:10035000C877C0686C2F6F29C8010E943D01F80161
:100360008485882319F083E290E002C08FE390E057
:100370000197F1F7DF91CF911F910F91FF900895B1
:10038000EF92FF920F931F93CF9388EAE82E81E0BC
:10039000F82EF7018081918104E610E0B8010E94F7
:1003A000E019CFEFC69FC001C79F900D1124BC017B
:1003B00083E00E944609F70182819381B8010E947F
:1003C000E019C69FC001C79F900D1124BC0185E0B4
:1003D000CF911F910F91FF90EF900C944609CF930E
:1003E000DF932091AC013091AD012130310579F5D9
:1003F000C4E6D0E060E070E086E00E94460960E07C
:1004000070E089E00E94460960E070E08AE00E94A6
:1004100046090E946317219769F7C4E6D0E060E0BF
:1004200070E086E00E94460960E070E089E00E948A
:10043000460960E070E08AE00E9446090E94631766
:10044000219769F71092AD011092AC012FC0E2E044
:10045000F1E0E49120917B00E3FB882780F990E0B4
:1004600035E0880F991F3A95E1F7922F9F7D892BF0
:1004700080937B00E770E064E0937C0080917A00D9
:10048000806480937A0080917A0086FDFCCF809111
:1004900078002091790090E0922B892B39F060E070
:1004A00070E086E0DF91CF910C944609DF91CF9107
:1004B0000895CF93DF9380E00E94070D89E491E0D7
:1004C0000E94050DCAE0D0E08BE591E00E94050D89
:1004D0002197D1F78BE591E00E94050D8BE591E026
:1004E0000E94050D80E090E00E948A0C8FE491E06C
:1004F0000E94050D81E00E94070D81E591E00E94B8
:10050000050DCAE0D0E08BE591E00E94050D219732
:10051000D1F78BE591E00E94050D8BE591E00E94FB
:10052000050D80E090E00E948A0C8FE491E00E942B
:10053000050D82E00E94070D87E591E00E94050D00
:10054000CAE0D0E08BE591E00E94050D2197D1F73C
:100550008BE591E00E94050D8BE591E00E94050D71
:1005600080E090E00E948A0C8FE491E00E94050DEB
:1005700083E00E94070D8DE591E00E94050D83E662
:1005800091E00E94050D8BE591E00E94050D80E051
:1005900090E00E948A0C88E691E00E94050D8BE5B0
:1005A00091E00E94050D80E090E0DF91CF910C94E6
:1005B0008A0CDC01ED91FC910284F385E02D40E092
:1005C00009940F931F93CF93DF93EC01423018F0FF
:1005D0008C8188608C834F836887222329F0413087
:1005E00019F48C8184608C8364E670E080E090E094
:1005F0000E94DD096C8164FD31C0E881F9810284CB
:10060000F385E02D42E063E0CE0109958BE496E4AA
:100610000197F1F7E881F9810284F385E02D42E04A
:1006200063E0CE01099503E512E0C8010197F1F7F7
:10063000E881F9810284F385E02D42E063E0CE0198
:100640000995C8010197F1F7E881F9810284F385E2
:10065000E02D42E062E0CE01099517C06062CE0154
:100660000E94D9028BE496E40197F1F76C816062F5
:10067000CE010E94D90203E512E0C8010197F1F70B
:100680006C816062CE010E94D902C8010197F1F726
:100690006C816062CE010E94D9028BEE90E00197DE
:1006A000F1F784E08D836CE0CE010E94D90261E015
:1006B000CE010E94D9028BE39FE10197F1F782E01E
:1006C0008E8366E0CE010E94D902E881F981008420
:1006D000F185E02D6FEFCE01DF91CF911F910F914A
:1006E00009940F931F938FEF9FEF9093D9028093FC
:1006F000D8020E943E0D83E00E94550C85E00E94C6
:10070000550C86E00E94550C89E00E94550C8AE049
:100710000E94550C20E044E064E18CE193E00E94EB
:10072000E10200E010E022E040E850E06EE671E017
:1007300089E592E00E94711722E040E850E06BE703
:1007400071E08FEE91E00E94711722E040E850E0E6
:100750006CE871E080EC91E00E9471171F910F919D
:1007600008958091DA0181110DC082E08093D60155
:1007700084E08093D7011092D9011092D80181E0D2
:100780008093DA0186ED91E008951092BB011092FA
:10079000E3011092BA018091D70081608093D70065
:1007A00080EA8093D80089B5806189BD89B582606F
:1007B00089BD09B400FEFDCF61E070E080E090E00B
:1007C0000E94DD098091D8008F7C80618093D800E1
:1007D0008091E000807F8093E0008091E1008E7E38
:1007E0008093E1008DE08093E200559A209AEEEF2D
:1007F000FFE7859194918B3F9C4D19F481E08093A4
:10080000E20108950E945D1BDF92EF92FF920F9329
:100810001F93CF93DF93D82E8A017B01E40EF51E40
:10082000EB01CE15DF0571F0D7FE03C0FE01849108
:1008300001C088810E94A80821968111F2CF8FEF14
:100840009FEF01C0C801DF91CF911F910F91FF90E1
:10085000EF90DF9008950F931F93CF93DF931F9234
:10086000CDB7DEB782E0898342E450E068E071E012
:1008700080E80E9404040E94B103DC0112960D91ED
:100880001C9113970115110569F0D801ED91FC91A8
:100890000280F381E02DBE016F5F7F4FC801099593
:1008A00097FF07C089810F90DF91CF911F910F9122
:1008B0000895F80100851185E5CFFC018091BB0109
:1008C000811103C08FEF9FEF08959FB7F89482E0E6
:1008D0008093E9002091F20030E01216130614F420
:1008E00021E030E02115310559F0289884E6809305
:1008F000B9018091F10080838091F200882319F082
:100900009FBFC90108958BE68093E800F9CF1F923D
:100910000F920FB60F9211242F933F934F935F9333
:100920006F937F938F939F93AF93BF93CF93EF93E7
:10093000FF93C091E1008091E100837F8093E1000B
:10094000C3FF0FC01092E90081E08093EB0010928A
:10095000EC0082E38093ED001092BB0188E080936D
:10096000F000C2FF18C00E943E0D8091B2018823A2
:1009700039F08091B20181508093B201882389F1CE
:100980008091B901882339F08091B9018150809319
:10099000B901882341F1C4FF10C08091E2008E7E2E
:1009A00081608093E2008091E1008F7E8093E1007E
:1009B0008091BA018E7E806111C0C0FF16C0809107
:1009C000E2008E7E80618093E2008091E1008E7E65
:1009D0008093E1008091BA018E7E81608093BA019C
:1009E00004C05D9ACDCF289AD6CFFF91EF91CF91D9
:1009F000BF91AF919F918F917F916F915F914F9137
:100A00003F912F910F900FBE0F901F9018951F923E
:100A10000F920FB60F921124CF92DF92EF92FF92B6
:100A20000F931F932F933F934F935F936F937F93F6
:100A30008F939F93AF93BF93EF93FF93CF93DF93E6
:100A4000CDB7DEB76C97DEBFCDBF1092E9008091C5
:100A5000E80083FFFAC168E0CE0145960E94D608FF
:100A600082EF8093E8008D8987FF05C09091E800B0
:100A700090FFFCCF03C09EEF9093E800982F9076F4
:100A800009F0C6C09E892F89188D91110CC080383D
:100A900029F48091E3018093F10002C01092F100EB
:100AA0001092F10047C1422F50E0512B913051F488
:100AB000811140C14130510509F03CC18091E301F1
:100AC0008D7F0BC0933061F4811134C141305105E9
:100AD00009F030C18091E30182608093E3012AC173
:100AE000953041F48091E80080FFFCCF206820938E
:100AF000E30020C1963009F05FC0EB8CFC8C1092B3
:100B0000E9001092B1011092B001123091F51092EB
:100B1000AF011092AE010E942B0499E0BE016F5FFD
:100B20007F4FDB01E92F1D92EA95E9F799831A833C
:100B300091E09E8390EA98879AEF99872091B0017F
:100B40003091B101275F3F4F3C832B838D831092FF
:100B5000E9001092B1011092B001F092AF01E09261
:100B6000AE0149E050E080E00E9404040E942B04A2
:100B7000E1C0F092AF01E092AE010E94B103DC014E
:100B80001296ED90FC901397E114F10409F4C0C0A3
:100B9000D701ED91FC910480F581E02DBE016B5EE3
:100BA0007F4FC7010995009719F00CF0C3C0C6C06C
:100BB000F701E084F184E8CF973009F4BFC09830A2
:100BC00021F481E08093F100B5C0993009F0B2C002
:100BD000837009F0B3C0E3E1F1E081E021E036E3A6
:100BE0009081992361F08093E9002093EB0091912B
:100BF0009093EC003093ED008F5F873089F78EE79C
:100C00008093EA001092EA008F898093BB0192C022
:100C10008B8D9C8D1092E9001092B1011092B00161
:100C20009093AF018093AE01898D811156C08E895A
:100C30009D89913A59F4813209F080C047E050E033
:100C400064E071E080E00E94040474C0913209F015
:100C500075C0833289F4888D90E0982F88272F897A
:100C6000822BA0E0B0E08093000190930101A0935B
:100C70000201B09303015EC0803269F48091E80004
:100C800082FFFCCF67E084E091E00E94D6088BEF02
:100C90008093E80006C0823209F04CC08F898093AF
:100CA0000B018091E201882319F0EEEFFAE002C017
:100CB000E0E0F8E08091040190910501A091060127
:100CC000B0910701803B9440A105B10509F088C0AF
:100CD00080910B0180FFA0C083C00E94B103DC01A2
:100CE00012960D911C9113970115110539F1D80138
:100CF000ED91FC910190F081E02DBE016B5E7F4F84
:100D0000C8010995811116C0F80100851185ECCF45
:100D10001130C1F0133091F48F89882309F455C044
:100D20008230E9F440E862E187E591E00E94C51075
:100D3000882321F08EEF8093E80087C081E28093C2
:100D4000EB0083C08B8D9C8D089711F41093BF012D
:100D50008091BF01811136C06AE671E038C08130F0
:100D600029F440E868E08EE491E0E0CF833031F789
:100D70000E94B103DC011296ED90FC9013978E0156
:100D80000F5F1F4F6801E114F10479F0D701ED9175
:100D9000FC910680F781E02DB801C7010995080F85
:100DA000111DF701E084F184EECFD8011C92F60109
:100DB00001900020E9F73197BF016C197D0940E0EF
:100DC000C601B4CF6CE771E002C06AE471E061155E
:100DD000710509F4B3CFFB01449150E080E833CFB3
:100DE0000FB6F894A89580916000886180936000A8
:100DF000109260000FBEA895EE3F2AE0F20739F08E
:100E00008091FE0A9091FF0A9183808393CF109284
:100E1000FF0A1092FE0A8ECFEE3F8AE0F80731F00B
:100E2000808191819093FF0A8093FE0A87E797E77C
:100E3000918380839BE088E10FB6F894A895809316
:100E400060000FBE9093600075CF6C960FB6F8945B
:100E5000DEBF0FBECDBFDF91CF91FF91EF91BF916C
:100E6000AF919F918F917F916F915F914F913F9142
:100E70002F911F910F91FF90EF90DF90CF900F90E7
:100E80000FBE0F901F9018958FEF9FEF08958091E0
:100E9000090290E09195819591090895E09186026B
:100EA000F09187028081811103C08FEF9FEF0CC00A
:100EB000E0918602F09187020580F681E02D0680A0
:100EC000F781E02D828193819093B8018093B701DF
:100ED0000895CF93DF9300D0CDB7DEB7CB01642F59
:100EE00049835A830E941B0C4981842F5A81952F74
:100EF0000F900F90DF91CF910895CF93DF931F92C2
:100F0000CDB7DEB7698361E0CE0101960E941B0C6C
:100F100081E090E00F90DF91CF9108953F9A479A3A
:100F20002FEF80E792E0215080409040E1F700C031
:100F30000000379AF5CF00E010E08091E6018823A9
:100F400049F10E94E114C09191020E94C613CC2382
:100F5000A1F30FB6F8940F92E0919602F0919702E8
:100F6000C681D781CE0102960E944E0F8091CB029E
:100F700081508093CB028091E60181508093E601FD
:100F80000F900FBE8F89988D0E949510CE010E9400
:100F90009510D3CF8091A302823010F00E94920F5F
:100FA0000115110551F20E940000C7CFCF92DF92C8
:100FB000EF92FF920F931F93CF93DF936C017A010F
:100FC0008B01C0E0D0E0CE15DF0589F0D8016D912E
:100FD0008D01D601ED91FC910190F081E02DC601CB
:100FE0000995892B11F47E0102C02196ECCFC7012F
:100FF000DF91CF911F910F91FF90EF90DF90CF90F5
:101000000895CF93DF931F92CDB7DEB76983DC01DC
:10101000ED91FC910280F381E02D41E050E0BE01B2
:101020006F5F7F4F09950F90DF91CF910895FC017D
:101030008485958597FD0BC09FB7F89482E08093D7
:10104000E9008091F2009FBF90E0019608959FB75C
:10105000F89482E08093E9008091F2009FBF90E0D5
:1010600008953FB7F89480917D0290917E02A091FF
:101070007F02B091800226B5A89B05C02F3F19F0D2
:101080000196A11DB11D3FBFBA2FA92F982F882708
:10109000820F911DA11DB11DBC01CD0142E0660F63
:1010A000771F881F991F4A95D1F7089585ED809382
:1010B000BC008091BC0084FDFCCF109252020895C8
:1010C00008958FEF9FEF08950C943E0DCF93DF931B
:1010D0001F92CDB7DEB7FC018485958597FD05C0CD
:1010E0002FEF3FEF358724870BC0CE0101960E947A
:1010F0005D04019719F4898190E002C08FEF9FEFA2
:101100000F90DF91CF9108950F931F93CF93DF93AB
:101110001F92CDB7DEB78C01FC018485958597FFC2
:101120000EC0CE0101960E945D04019719F4298139
:1011300030E002C02FEF3FEFF80135872487F80138
:10114000848595850F90DF91CF911F910F91089520
:101150004091B0015091B1012091AE013091AF01A9
:1011600042175307B4F49091E8009570E1F3909121
:10117000E80092FD19C08093F1008091B001909138
:10118000B10101968F739927892B19F48EEF809303
:10119000E8008091B0019091B10101969093B10166
:1011A0008093B00181E0089580E00895615030F0AF
:1011B0002091F100FC0120830196F8CF289884E665
:1011C0008093B9010895362F90E0FC01E257FE4F5D
:1011D0004491FC01E951FE4F2491FC01E853FE4F7C
:1011E0008491882309F451C04423E1F150E0FA01CD
:1011F0003197EF30F105B0F5E05AFF4F0C94161A15
:10120000909180009F7707C0909180009F7D03C0E0
:1012100090918000977F9093800024C094B59F7731
:1012200002C094B59F7D94BD1DC0909190009F77A2
:1012300007C0909190009F7D03C090919000977F90
:10124000909390000FC09091C0009F7703C0909141
:10125000C0009F7D9093C00005C09091C200977F11
:101260009093C200E82FF0E0EE0FFF1FE455FE4F11
:10127000A591B4918FB7F894EC91311103C02095EA
:101280002E2301C02E2B2C938FBF08951F93CF9335
:10129000DF93182FEB010E94550C209711F460E0AA
:1012A00004C0CF3FD10539F461E0812FDF91CF91A8
:1012B0001F910C94E308E12FF0E0E257FE4FE49118
:1012C0004E2F50E0FA013197EF30F10508F06CC075
:1012D000E159FF4F0C94161A84B5806884BDC7BDD0
:1012E00068C084B5806284BDC8BD63C08091800041
:1012F000806880938000D0938900C093880059C093
:1013000080918000806280938000D0938B00C09396
:101310008A004FC080918000886080938000D093C5
:101320008D00C0938C0045C08091900080688093B0
:101330009000D0939900C09398003BC0809190009A
:10134000806280939000D0939B00C0939A0031C03C
:1013500080919000886080939000D0939D00C0930E
:101360009C0027C08091C00080688093C00080915D
:10137000C0008F7B8093C000C093CF001AC08091C3
:10138000C00080628093C000C093D00012C08091E2
:10139000C20088608093C2008091C2008B7F8093DE
:1013A000C200C093D20005C0C038D1050CF07CCF7C
:1013B00076CFDF91CF911F9108958F929F92AF9238
:1013C000BF92CF92DF92EF92FF926B017C010E945D
:1013D00031084B015C01C114D104E104F104F1F0C6
:1013E0000E943108DC01CB0188199909AA09BB09BF
:1013F000883E9340A105B10570F321E0C21AD108DF
:10140000E108F10888EE880E83E0981EA11CB11C4B
:10141000C114D104E104F10419F7DDCFFF90EF907E
:10142000DF90CF90BF90AF909F908F9008958F9254
:101430009F92AF92BF92CF92DF92EF92FF920F9363
:101440001F93CF93DF935C016B018A0180910B01A5
:10145000882309F45EC08091BB01882309F459C038
:101460008091BA0180FF05C08091E0008260809386
:10147000E000E8018AEFF82E93E0E92E2FE3822EB8
:101480003AE3932E209709F43DC08FB7F894E09289
:10149000E9009091E80095FF06C09091F200282D98
:1014A000291B922F01C090E08FBF91110AC0FA94BE
:1014B000FF2079F161E070E080E090E00E94DD09BA
:1014C000E1CF292F30E0C217D3070CF49C2F8FB740
:1014D000F894E092E9002091E80025FF11C0292F3F
:1014E00030E0C21BD30BF601915020F041914093A4
:1014F000F100FACFC20ED31E9091E80095FF13C001
:101500008FBFC0CF5D9884E68093B201101611069C
:1015100044F081E090E0F5019383828380E090E0E5
:1015200005C0C80103C09092E800EACFDF91CF91D7
:101530001F910F91FF90EF90DF90CF90BF90AF90F1
:101540009F908F9008951F920F920FB60F921124C3
:101550002F933F938F939F93AF93BF938091790283
:1015600090917A02A0917B02B0917C023091780236
:1015700023E0230F2D3720F40196A11DB11D05C0D6
:1015800026E8230F0296A11DB11D209378028093B7
:10159000790290937A02A0937B02B0937C028091AF
:1015A0007D0290917E02A0917F02B091800201960F
:1015B000A11DB11D80937D0290937E02A0937F02B6
:1015C000B0938002BF91AF919F918F913F912F91E6
:1015D0000F900FBE0F901F9018951F920F920FB68D
:1015E0000F9211242F933F934F935F936F937F93A9
:1015F0008F939F93AF93BF93EF93FF938091B90025
:10160000887F803609F49CC068F5883209F45BC095
:1016100090F4803109F454C038F4882309F4F6C0FA
:10162000883009F44DC0F6C0883109F44CC08032CE
:1016300009F45DC0EFC0803409F468C048F4803319
:1016400009F455C0883309F0E5C080935102D8C031
:10165000803509F44FC0883509F45DC0883409F03D
:10166000D9C0D6C0883909F4C7C0A8F4883709F4AE
:1016700067C038F4883609F463C0803709F460C065
:10168000C9C0883809F4B8C0803909F45FC080380F
:1016900009F0C0C05BC0803B09F486C038F4803AD2
:1016A00009F466C0883A09F47FC0B4C0803C09F4EC
:1016B000A7C0883C09F4A4C0883B09F48AC0AAC02A
:1016C0008091770210C090917602809175029817F0
:1016D00070F5E091760281E08E0F80937602F0E063
:1016E000EB5AFD4F80818093BB0085EC86C08093D0
:1016F00051028EC0E091760281E08E0F80937602D7
:101700008091BB00F0E0EB5AFD4F80839091760210
:10171000809175026EC0E091760281E08E0F809319
:1017200076028091BB00F0E0EB5AFD4F8083809100
:10173000540281116DC081E08093530284EA61C03C
:1017400083E08093520210925002CFCF80915002DA
:10175000803208F051C0E091500281E08E0F8093FA
:1017600050028091BB00F0E0E05DFD4F8083BDCF73
:1017700085EC8093BC00109252028091500280321E
:1017800030F4E0915002F0E0E05DFD4F1082609196
:10179000500270E0E0912E02F0912F0280E392E07F
:1017A00009951092500236C084E080935202109244
:1017B0002D0210922C02E0912A02F0912B02099541
:1017C00080912C02811105C081E080932C0210923F
:1017D0000A02E0912D0281E08E0F80932D02F0E04D
:1017E000E65FFD4F80818093BB0090912D02809138
:1017F0002C02981708F479CF85E88093BC000AC0C2
:1018000085EC8093BC001092520204C010925102E9
:101810000E945608FF91EF91BF91AF919F918F91D8
:101820007F916F915F914F913F912F910F900FBEDC
:101830000F901F90189540912C02262F30E0240F16
:10184000311D21323105DCF4209152022430C9F4DB
:10185000FC0180E090E0861758F430912C02219131
:10186000DC01A65FBD4FA30FB11D2C930196F3CFF2
:1018700080912C02680F60932C0280E0089581E033
:10188000089582E00895009769F0FC01019000201E
:10189000E9F73197AF01481B590BBC018CE193E08C
:1018A0000C94D60780E090E0089590E0FC01E951A7
:1018B000FE4F2491FC01E853FE4F8491882399F058
:1018C00090E0880F991FFC01E654FE4FA591B4915A
:1018D000FC01E455FE4F859194918FB7F894EC91FB
:1018E000E22BEC938FBF0895CF93C82F0E94550C25
:1018F00060E08C2F0E94E308EC2FF0E0E853FE4FED
:10190000E491F0E0EE0FFF1FE455FE4F85919491B6
:10191000CF9108958F929F92AF92BF92CF92DF9214
:10192000EF92FF920F931F93CF93DF93CDB7DEB764
:10193000A1970FB6F894DEBF0FBECDBF6C01990F13
:10194000EE08FF08F7FE31C0E0911C03F0911D0383
:101950000190F081E02D6DE28CE193E009958C011E
:1019600022273327A9012C193D094E095F0919A225
:10197000CE0181967C019AE0892E912CA12CB12C6C
:10198000CA01B901A50194010E94F419605DF70133
:1019900062937F01211531054105510589F7CF017A
:1019A0000E94430C800F911F1DC0A701960119A230
:1019B0008E010F5D1F4F8AE0C82ED12CE12CF12C37
:1019C000CA01B901A70196010E94F419605DF801EE
:1019D00062938F01211531054105510589F7CF012A
:1019E0000E94430CA1960FB6F894DEBF0FBECDBF88
:1019F000DF91CF911F910F91FF90EF90DF90CF90EB
:101A0000BF90AF909F908F9008950C94430CCF930C
:101A1000DF93CDB7DEB728970FB6F894DEBF0FBEC1
:101A2000CDBF1D8290E49E8324E12F8324E5288787
:101A300019829A8390E19B8390E59C8320912303F4
:101A4000821710F08FEF820F3091240390E0FE0197
:101A5000E80FF91F303121F4243011F4618101C005
:101A6000658160688CE193E028960FB6F894DEBF3C
:101A70000FBECDBFDF91CF910C94D90283E080934C
:101A8000E9008091F200882319F08AE38093E8004E
:101A900008950F920FB6F8940F921F9211242F926F
:101AA0003F924F925F926F927F928F929F92AF92EE
:101AB000BF92CF92DF92EF92FF920F931F932F93DB
:101AC0003F934F935F936F937F938F939F93AF93C6
:101AD000BF93CF93DF93EF93FF93A091C902B0918F
:101AE000CA020DB60D920EB60D9213BE8091BC01C6
:101AF0008111F1C0809181029091820201969093B0
:101B0000820280938102009799F52091860230919C
:101B1000870240918402509185025093870240933E
:101B200086023093850220938402209183022F5FE6
:101B300020938302E0918602F09187022081211197
:101B400007C02FEF3FEF3093B8012093B70110C0CB
:101B5000E0918602F09187020580F681E02D0680F3
:101B6000F781E02D228133813093B8012093B701B2
:101B70002091B7013091B8018217930710F420E04B
:101B80009AC020E019E0E0918602F091870230814E
:101B9000311107C08FEF9FEF9093B8018093B70189
:101BA0008AC0E0918602F09187020580F681E02DDF
:101BB0000680F781E02D428153818417950728F430
:101BC0005093B8014093B70176C0AF014E5F5F4FAD
:101BD000A285B38564817581E680F780EB01FD8283
:101BE000EC82C681D7817B836A8311966D917C914B
:101BF00012976417750721F41296DC93CE93119710
:101C0000138612863C9131503C93A489B589109774
:101C1000F1F066857785E088F188EB01FD82EC8242
:101C2000C089D1897B836A831196ED90FC901297CD
:101C3000BF01645F7F4FE616F70621F41296DC932E
:101C4000CE931197158A148A3C9131503C93A68902
:101C50003091C7023A1710F4A093C7021A9FD0011F
:101C60001124BD016D557D4F7B01DB011196CD9196
:101C7000DC911297D583C4836C817D8177836683E1
:101C80006C817D81DB0113965C934E9312975D838B
:101C90004C83F386E286E70138813F5F3883A09169
:101CA000C902B091CA02468956963C91431708F47E
:101CB0006ACF21E068CFE091C902F091CA02E689BB
:101CC000D9E0ED9FF0011124ED55FD4F8081823068
:101CD00040F021E006C08091E4018F5F8093E40131
:101CE00020E08091E501811103C0222309F466C040
:101CF0008091BC01882321F081E08093E5015EC0E2
:101D00001092E501A091C902B091CA02E091C90206
:101D1000F091CA022D913C918789908D821793078B
:101D2000A8F08091C9029091CA028091C902909155
:101D3000CA023F9A479A2FEF67EA71E62150604046
:101D40007040E1F700C00000379AF5CF8091C702DC
:101D500069E001C08150482F50E0649F9001659F69
:101D6000300D1124F901ED55FD4F9081992391F328
:101D7000A181B28112960D90BC91A02DB283A18356
:101D80002A553D4FA217B30731F412962D913C917D
:101D900013973283218399E0949FF001959FF00D72
:101DA0001124ED55FD4F0180F281E02D2681378110
:101DB0003093CA022093C9028093C702A091C9023E
:101DC000B091CA02CD91CDBFDD91DEBFFF91EF9101
:101DD000DF91CF91BF91AF919F918F917F916F9143
:101DE0005F914F913F912F911F910F91FF90EF9035
:101DF000DF90CF90BF90AF909F908F907F906F902B
:101E00005F904F903F902F901F900F900FBE0F90BC
:101E10000895EF92FF920F931F93CF93DF93EC01FE
:101E20000FB6F8940F921E8D7C0181E1E80EF11C33
:101E300001E011165CF48989882341F0C7010E94F2
:101E4000861381110093E5011150F3CF8FEF8E8F30
:101E50000F900FBE0FB6F8940F921D8D7E0188E093
:101E6000E80EF11C01E011165CF48885882341F02E
:101E7000C7010E94861381110093E5011150F3CF31
:101E80008FEF8D8F0F900FBEDF91CF911F910F912C
:101E9000FF90EF9008950E94490D1895CF93DF931E
:101EA000FC01A085B1858281938124813581EC017B
:101EB0003D832C83C481D5819B838A8311968D9128
:101EC0009C9112978E179F0721F41296DC93CE9364
:101ED0001197118610868C9181508C93DF91CF9150
:101EE0000895CF93DF939C01FB01DC011196CD9106
:101EF000DC911297D383C2838C819D8195838483E7
:101F00008C819D81DC0113967C936E9312977D8367
:101F10006C8331872087F90180818F5F8083DF9117
:101F2000CF9108950F920FB6F8940F921F9211243B
:101F30002F923F924F925F926F927F928F929F92D9
:101F4000AF92BF92CF92DF92EF92FF920F931F93C7
:101F50002F933F934F935F936F937F938F939F93B1
:101F6000AF93BF93CF93DF93EF93FF93A091C902F9
:101F7000B091CA020DB60D920EB60D928091BC01C1
:101F8000882321F081E08093E5015EC01092E50195
:101F9000A091C902B091CA02E091C902F091CA02AF
:101FA0002D913C918789908D82179307A8F080919D
:101FB000C9029091CA028091C9029091CA023F9AC7
:101FC000479A2FEF87EA91E6215080409040E1F751
:101FD00000C00000379AF5CF8091C70269E001C0C8
:101FE0008150482F50E0649F9001659F300D11246F
:101FF000F901ED55FD4F9081992391F3A181B281B3
:1020000012960D90BC91A02DB283A1832A553D4F0D
:10201000A217B30731F412962D913C911397328396
:10202000218399E0949FF001959FF00D1124ED55C7
:10203000FD4F0180F281E02D268137813093CA0265
:102040002093C9028093C702A091C902B091CA022D
:10205000CD91CDBFDD91DEBFFF91EF91DF91CF91AB
:10206000BF91AF919F918F917F916F915F914F91B0
:102070003F912F911F910F91FF90EF90DF90CF90A4
:10208000BF90AF909F908F907F906F905F904F9098
:102090003F902F901F900F900FBE0F9008950F93B9
:1020A0001F93CF93DF938C01FB01808191818F3F40
:1020B0002FEF920721F4E801AF81B8850EC0D80157
:1020C000139612962D913C911397E90148815981FD
:1020D0008417950710F0D901F4CF12968D919C9139
:1020E000139793838283EC01FD83EC83B583A483F0
:1020F0001396FC93EE93129711870087F801808165
:102100008F5F8083DF91CF911F910F910895FC0124
:102110000396928381832FEF3FEF3483238396834B
:1021200085839087878310820895CF93DF930097EC
:1021300051F0EC010E94E114CE010E94C51ADF911A
:10214000CF910C94C613DF91CF9108950F931F93F5
:10215000CF93DF9300D0CDB7DEB789839A830E94F7
:10216000E11489819A810E94301A8C010E94C61361
:102170000115110511F40E948E07C8010F900F90F0
:10218000DF91CF911F910F910895CF92DF92EF923F
:10219000FF920F931F93CF93DF931F92CDB7DEB7BC
:1021A000182F062FE42E862F880F8E5F99830E94AA
:1021B000A80883E00E94A808F12EC12E9981D92E8B
:1021C0008C2D8F19801798F4F601E7FE02C08491D8
:1021D00001C080810E94A808182F80E00E94A808F2
:1021E0008123FFEFCF1ADF0A8111EACF01C081E01E
:1021F0000F90DF91CF911F910F91FF90EF90DF90A3
:10220000CF900895CF93DF9300D000D01F92CDB729
:10221000DEB79C018091BD019091BE01009761F0F5
:1022200019827B836A833D832C832091C8022223F9
:1022300029F02091BC0102C080E005C0BE016F5FA3
:102240007F4F0E94E2180F900F900F900F900F9009
:10225000DF91CF910895789484B5826084BD84B570
:10226000816084BD85B5826085BD85B5816085BD91
:1022700080916E00816080936E0010928100809149
:1022800081008260809381008091810081608093D1
:102290008100809180008160809380008091910016
:1022A0008260809391008091910081608093910081
:1022B000809190008160809390008091C100846043
:1022C0008093C1008091C10082608093C1008091A1
:1022D000C10081608093C1008091C30081608093C0
:1022E000C3008091C00082608093C0008091C200D2
:1022F00081608093C20080917A00846080937A002C
:1023000080917A00826080937A0080917A00816067
:1023100080937A0080917A00806880937A000E948E
:10232000C5030E94710304ED11E020E040EC50E091
:102330006AE971E08BE997E00E947117813009F03A
:10234000B0C00FB6F8940F928091BD019091BE017C
:10235000892B09F04BC089EC91E00E94871080EC3A
:1023600091E00E94871089EC91E09093B6018093F0
:10237000B50180EC91E09093B4018093B30181E5C5
:1023800090E00E94A610EC01009761F14F969983AE
:1023900088838AE08B8F85E08C8F0FB6F8940F923C
:1023A000288139819B8D4C8D949FC0011124B901E6
:1023B000680F791F7B836A831A8E3D832C83841B6D
:1023C0009109820F931F9F838E838FEF8D8F8E8F46
:1023D000CE0108960E948710CE0141960E94871078
:1023E0000F900FBED093BE01C093BD010F900FBEE2
:1023F0008091BD019091BE01892B09F452C002ED7C
:1024000011E023E045E550E06FE971E087EE94E1EB
:102410000E947117813009F044C0F8942FEF3FEF0C
:102420003093B8012093B7018093C80210928202C2
:1024300010928102A89520EC88E190E00FB6F89404
:10244000A895809360000FBE20936000A091C90200
:10245000B091CA02CD91CDBFDD91DEBFFF91EF916A
:10246000DF91CF91BF91AF919F918F917F916F91AC
:102470005F914F913F912F911F910F91FF90EF909E
:10248000DF90CF90BF90AF909F908F907F906F9094
:102490005F904F903F902F901F900F900FBE0F9026
:1024A00008950E948E070E94C5030E947103C0E038
:1024B000D0E02097F1F30E940000FBCF0FB6F89414
:1024C0000F9280918102909182020F900FBE089529
:1024D0000FB6F8940F92FC01928D0F900FBE81E021
:1024E000911180E00895FC01738362839187808756
:1024F0004617570778F0421B530B8485958548177C
:102500005907C8F4BF016E5F7F4F8091B30190916E
:10251000B4010DC04217530718F46217730758F43B
:10252000BF016E5F7F4F8091B5019091B6010E940F
:102530004F1080E0089581E00895EF92FF920F938D
:102540001F93CF93DF93E091B501F091B6018081A5
:10255000882369F10580F681E02D00811181C68113
:10256000D7817E0182E0E80EF11CC7010E944E0F68
:10257000E989FA89CE0109958E85813021F72C856C
:102580003D85200F311F0217130760F43B832A8318
:10259000D987C887B7018091B5019091B6010E9493
:1025A0004F10D1CFB801CE010E940211CCCF809143
:1025B000B3019091B4019093B6018093B501F0936B
:1025C000B401E093B301DF91CF911F910F91FF9080
:1025D000EF900895EF92FF920F931F93CF93DF93A5
:1025E0001F92CDB7DEB77C0100918102109182026B
:1025F0008091C9029091CA02029669830E944E0F8F
:1026000069818FEFE816F80699F4662389F06091E6
:10261000C9027091CA026E5F7F4F88E892E00F9006
:10262000DF91CF911F910F91FF90EF900C94710F5C
:10263000E00EF11EE091C902F091CA02F382E2823B
:102640006091C9027091CA02E016F10678F4809197
:102650008402909185026E5F7F4F0F90DF91CF9142
:102660001F910F91FF90EF900C944F108091860274
:10267000909187026E5F7F4F0E944F108091B7014B
:102680009091B801E816F90620F4F092B801E092B2
:10269000B7010F90DF91CF911F910F91FF90EF90B5
:1026A0000895FC010FB6F8940F92809181029091E9
:1026B0008202DB012D913C912F3FBFEF3B0701F1DF
:1026C000B0918302A08141815281BA1719F0841719
:1026D0009507C0F4DC01A41BB50BA217B30790F457
:1026E000481B590B240F351FDB012D933C93809120
:1026F0008302808380918102909182029283818300
:1027000080E001C081E00F900FBE08950F931F93EA
:10271000CF93DF93DC011596ED91FC911697C6815E
:10272000D7818E01045F1F4FC8010E944E0F809118
:10273000BC01811114C00A501109C8010E944E0F3A
:102740009E898091C702891710F49093C702B9E05F
:102750009B9FC0011124B8018D559D4F03C0B80146
:102760008AE992E00E94710FE091C902F091CA02D9
:102770009E898689891720F481E08093E50101C054
:1027800080E0DF91CF911F910F9108958F929F92DA
:10279000AF92BF92CF92DF92EF92FF920F931F936F
:1027A000CF93DF930FB6F8940F928091BC018150C4
:1027B0008093BC018091BC01882311F080E0F2C0BD
:1027C0008091CB028823D1F3C0E0D0E029E0F22E43
:1027D000EE24E39480919A02882351F1E0919F02C4
:1027E000F091A002C681D781CE010C960E944E0FB7
:1027F0008E010E5F1F4FC8010E944E0F9E8980916F
:10280000C702891710F49093C702F99EC0011124E2
:10281000B8018D559D4F0E94710FE091C902F09152
:10282000CA029E8986899817A8F2E092E501D2CF64
:10283000CD2B11F00E944E07E090E401EE2009F448
:10284000A9C089E0B82EAA24A394CC24CA94DC2C75
:102850008091BC0181118CC0C0918102D091820213
:102860002196D0938202C09381022097B9F480917F
:1028700086029091870220918402309185023093E4
:102880008702209386029093850280938402809130
:1028900083028F5F809383020E944E078091B7016D
:1028A0009091B801F12CC817D90708F451C0E091F4
:1028B0008602F09187028081811105C0D092B80113
:1028C000C092B70145C0E0918602F0918702058071
:1028D000F681E02D06811781D80112968D919C9189
:1028E0001397C817D90728F49093B8018093B701BC
:1028F0002FC04801B2E08B0E911CC4010E944E0F04
:10290000F80184899589892B21F0C8010C960E94D1
:102910004E0FD80156968C919091C702981710F4DB
:102920008093C702B89EC0011124B4018D559D4FFC
:102930000E94710FE091C902F091CA02D801569627
:102940009C918689981708F4B2CFFF24F394AFCFF7
:10295000E091C902F091CA02E689BE9EF0011124FD
:10296000ED55FD4F8081823048F0FF24F39406C07E
:102970008091E4018F5F8093E401F12C8091E50167
:10298000811101C0F110A092E501EA94E11060CF3D
:102990001092E4018091E501882309F40FCF0E9491
:1029A000920F81E00F900FBEDF91CF911F910F9199
:1029B000FF90EF90DF90CF90BF90AF909F908F905F
:1029C00008958091BC018F5F8093BC010895CF93DF
:1029D000DF93CDB7DEB72C970FB6F894DEBF0FBEEE
:1029E000CDBFE091B501F091B601FF24F394808151
:1029F000882339F0F12C0580F681E02D00811181CA
:102A000002C000E010E00E94E1140E945E126C011E
:102A10008091E7019091E801C816D90620F40E9440
:102A20009D1281E001C080E0D092E801C092E701F0
:102A3000811178C0F11034C0C016D106C8F10E94CF
:102A4000C613E091B501F091B6010580F681E02D45
:102A5000E680F780C70102960E944E0FD7011E96AE
:102A60008C911E97813089F41C966D917C911D97F5
:102A7000600F711F9801A601C7010E94731288237D
:102A800021F0B801C7010E940211D7015196ED91C2
:102A9000FC915297C701099594E0C92ED12C52C0E0
:102AA000E091B301F091B401BB24B3948081811112
:102AB000B12CE090BD01F090BE010FB6F8940F92DA
:102AC000F701858D8F3F09F4158ED7015E968C91A5
:102AD0005E978F3F11F45E961C920F900FBEF70128
:102AE000828D811115C06091C9027091CA02645F24
:102AF0007F4FC70141960E94710FB11004C0C801F9
:102B00008C199D0902C08FEF9FEF6B2D0E94EA1276
:102B1000C7010E94090F0E94C6138111BDCF0E94F8
:102B2000920FBACF0E94C613B7CFEA80FB80F8019C
:102B3000648575856E0D7F1D9701C8010E94731213
:102B400081118DC089E0782E0091BD011091BE01E8
:102B50001A86198680E05801B1E1AB0EB11C0FB6A0
:102B6000F8940F92F801F28CFF2009F49FC0448D75
:102B70004423C9F050E086819781840F951F978385
:102B80008683228133818217930720F0808191818F
:102B900097838683D80116966D917C911797CE0105
:102BA00001960E94621BFA94F801F28E8081918155
:102BB000892BB1F48091C9029091CA02892B39F016
:102BC000E091C902F091CA0282A18F5F82A3809135
:102BD000C9029091CA02D80113969C938E931297C2
:102BE000F8018085882339F0C80108960E94861371
:102BF00081110E94920F0F900FBE898087FCA4CF95
:102C00000C811D81D8011A968D919C911B97892B5F
:102C100021F0C80102960E944E0F0E945E12AC0184
:102C20008091E7019091E8014817590730F44B87EC
:102C30005C870E949D125C854B855093E801409310
:102C4000E701882D880C990BAA0BBB0B8A309105E4
:102C500008F07ACFFC01EA5AFF4F0C94161AD801FB
:102C60005196ED91FC915297C8010995F80186851E
:102C7000813009F067CF84859585B701680F791F8A
:102C8000C8010E9402115ECF6A817B81D8011D9626
:102C90007C936E931C97640F751F9A01C8010E9464
:102CA000731250CFC8010E9495104CCF29853A85E8
:102CB000232B19F40F900FBE94CE811109C080917F
:102CC00083028E83809181029091820298878F8304
:102CD0000F900FBE0E94E1140FB6F8940F92D80126
:102CE0005D968C915D978F3F11F45D961C92F80173
:102CF000868D8F3F09F4168E0F900FBEBE01675F61
:102D00007F4FCE0106960E945113811187C0C801E2
:102D10000E946812882309F47BC0D8018D919C9190
:102D2000892B09F05AC00FB6F8940F92F801E2808F
:102D3000F380E114F10409F44EC0D70156968C914A
:102D40005697E091C902F091CA029689891708F056
:102D500042C01C962D913C911D9737FD0CC0E0910F
:102D6000C902F091CA0296899601291B31091D9664
:102D70003C932E931C97789EC00111248D559D4F36
:102D8000F7012285338528173907F1F44701F2E06E
:102D90008F0E911CC4010E944E0FE091C902F09168
:102DA000CA022689D70156962C938091C7028217B2
:102DB00010F42093C702729EC0011124B4018D55F6
:102DC0009D4F0E94710F07C0E091C902F091CA02A5
:102DD0008689F701868B0F900FBEE984FA84609193
:102DE000C9027091CA02645F7F4FC5010E944F10F3
:102DF00061E0C7010E94EA12C8010E94090F0E9407
:102E0000C613882311F081E0AACE0E94920FFBCF57
:102E1000C8010E94090F0E94C613F5CFC8010E9485
:102E2000090F0E94C613C8010E946812882359F333
:102E3000D8CDCF93DF93ECECF2E01382128288EED0
:102E400093E0A0E0B0E084839583A683B7832DE16F
:102E500031E0318320832FEF3FEF35872487E5E48E
:102E6000F3E01382128284839583A683B7838DE275
:102E700091E091838083CCE1D3E01B821A828DE3C1
:102E800091E0998388831C868EE00E94740C9E8753
:102E90008D87E5EFF1E0E491EF878FE00E94740CFD
:102EA000998B888BE6EFF1E0E491EA8B80E10E9458
:102EB000740C9C8B8B8BE7EFF1E0E491ED8B1C8223
:102EC000DF91CF9108950E94E11460E085E090E0E9
:102ED0000E94EA120E94C613811102C00E94920F42
:102EE00008957F928F929F92AF92BF92CF92DF927E
:102EF000EF92FF920F931F93CF93DF93982EC92EDB
:102F0000762E872EEA01D22ECA010E94A6105C01FD
:102F1000892B09F448C188E290E00E94A6107C0148
:102F20000097D9F0DC015896BC92AE925797AE014B
:102F300065EA70E0C5010E946B1B2197D701579687
:102F4000ED91FC915897EC0FFD1FB701675E7F4F25
:102F5000A72DB82DCD01089607C0C5010E94951078
:102F600022C1A817B90749F09D014D91EB01499382
:102F7000BE01E90128812111F4CFD70190961C925E
:102F80002D2D243008F023E0E7012E8B29A31AA26F
:102F90001B861A861D8A1C8AF986E88684E090E0E2
:102FA000821B91099D878C87FB8AEA8A1BA21CA23F
:102FB0001DA21EA21FA291E19083DF01119782E260
:102FC0008C93119723E32C9311979C921197CC9299
:102FD00011971C92119720E82C9311971C9211972E
:102FE00022E02C93119723E02C93119724E02C934B
:102FF000119725E02C93119726E02C93119727E049
:103000002C93119728E02C93119729E02C9311977A
:1030100020E12C9311979C93119792E19C93119727
:1030200093E19C93119794E19C93119795E19C9364
:10303000119796E19C93119797E19C93119798E1D2
:103040009C93119799E19C93119790E29C9311970F
:1030500091E29C9311978C93119783E28C93119733
:103060001C9211971C92119786E28C93119787E21C
:103070008C93119788E28C93119789E28C93119726
:1030800080E38C93119781E38C93B697F983E8835F
:103090000115110519F0F801F182E0820FB6F894DC
:1030A0000F928091CB028F5F8093CB028091C902F7
:1030B0009091CA02892BD1F5F092CA02E092C9021E
:1030C0008091CB02813009F043C083EA92E00E94F4
:1030D00087108CEA92E00E94871085EB92E00E94B4
:1030E00087108EEB92E00E9487108BE393E00E94A2
:1030F000871082E393E00E9487108AE992E00E94A1
:10310000871081E992E00E94871088E892E00E948F
:1031100087108BE393E0909387028093860282E38B
:1031200093E0909385028093840212C08091C8023C
:1031300081110EC0E091C902F091CA029689D701AF
:1031400056968C91891720F0F092CA02E092C9023B
:10315000809144038F5F80934403E7018E899091AF
:10316000C702981710F48093C702D9E08D9FC00161
:103170001124B7016E5F7F4F8D559D4F0E94710FD7
:103180000F900FBE8091C802882359F0E091C902C8
:10319000F091CA029689F7018689981710F40E9467
:1031A000920F81E001C08FEFDF91CF911F910F91BE
:1031B000FF90EF90DF90CF90BF90AF909F908F9057
:1031C0007F900895AF92BF92CF92DF92EF92FF92DD
:1031D0000F931F93CF93DF9300D000D01F92CDB7F2
:1031E000DEB78C017B011D821C8290E0580188E0D3
:1031F000A80EB11C0FB6F8940F92F801228D838DA2
:10320000281708F06DC0D28C448D41113FC08081D9
:103210009181892B09F052C0F801E280F380E1141A
:10322000F10411F480E02EC0F70182A1815082A345
:10323000268991A12917B1F38111F4CF5701F2E04A
:10324000AF0EB11CC5010E944E0FF70191A1968BE4
:10325000492F50E024E030E0241B350B35872487CC
:103260008091C702891710F49093C70229E0249F28
:10327000C001259F900D1124B5018D559D4F0E94D1
:10328000710F81E0F8011382128219C050E0B7017A
:10329000F801848195810E94621BF801248D84814C
:1032A0009581820F911D95838483228133818217BA
:1032B000930720F0808191819583848380E0D3946B
:1032C000F801D28E9189992321F0C80141960E947C
:1032D000861381110E94920F0F900FBE81E060C093
:1032E0002C813D81232B19F40F900FBE58C09111F2
:1032F00009C080918302898380918102909182022A
:103300009B838A830F900FBE0E94E1140FB6F8943E
:103310000F92F801858D8F3F09F4158EF801868D87
:103320008F3F09F4168E0F900FBEBE016C5F7F4F6A
:10333000CE0101960E94511381112CC00FB6F89452
:103340000F92F801928D838D0F900FBE98131CC0C1
:10335000CC80DD802091C9023091CA02B901645F3E
:103360007F4FC5010E944F1061E0C6010E94EA1222
:10337000C8010E94090F0E94C613882311F091E032
:1033800039CF0E94920FFBCFC8010E94090F0E9403
:10339000C613F5CFC8010E94090F0E94C61380E032
:1033A0000F900F900F900F900F90DF91CF911F9182
:1033B0000F91FF90EF90DF90CF90BF90AF90089566
:1033C00097FB072E16F4009407D077FD09D00E94D2
:1033D0001C1A07FC05D03EF4909581959F4F0895E7
:1033E000709561957F4F0895A1E21A2EAA1BBB1B11
:1033F000FD010DC0AA1FBB1FEE1FFF1FA217B307C1
:10340000E407F50720F0A21BB30BE40BF50B661FD6
:10341000771F881F991F1A9469F76095709580959A
:1034200090959B01AC01BD01CF010895EE0FFF1FE8
:103430000590F491E02D0994AA1BBB1B51E107C034
:10344000AA1FBB1FA617B70710F0A61BB70B881F34
:10345000991F5A95A9F780959095BC01CD010895C3
:10346000CF93DF938230910510F482E090E0E091F9
:103470005303F091540320E030E0C0E0D0E03097F7
:1034800011F14081518148175907C0F04817590779
:1034900061F482819381209719F09B838A832BC0EA
:1034A000909354038093530326C02115310519F0DE
:1034B0004217530718F49A01BE01DF01EF010280A1
:1034C000F381E02DDCCF2115310509F1281B390BE3
:1034D0002430310590F412968D919C9113976115CB
:1034E000710521F0FB019383828304C09093540300
:1034F00080935303FD01329644C0FD01E20FF31F98
:1035000081939193225031092D933C933AC020919D
:10351000510330915203232B41F420910E0130913D
:103520000F01309352032093510320910C013091ED
:103530000D012115310541F42DB73EB74091100121
:1035400050911101241B350BE0915103F09152036E
:10355000E217F307A0F42E1B3F0B2817390778F06A
:10356000AC014E5F5F4F2417350748F04E0F5F1FC9
:1035700050935203409351038193919302C0E0E032
:10358000F0E0CF01DF91CF9108950F931F93CF9378
:10359000DF93009709F48CC0FC01329713821282EA
:1035A00000915303109154030115110581F42081FA
:1035B0003181820F931F20915103309152032817BC
:1035C000390779F5F0935203E093510371C0D801A4
:1035D00040E050E0AE17BF0750F412962D913C9199
:1035E0001397AD012115310509F1D901F3CF9D01E3
:1035F000DA013383228360817181860F971F8217DE
:10360000930769F4EC0128813981260F371F2E5F5B
:103610003F4F318320838A819B8193838283452B13
:1036200029F4F0935403E093530342C01396FC93A0
:10363000EE931297ED01499159919E01240F351F88
:10364000E217F30771F480819181840F951F029630
:1036500011969C938E938281938113969C938E9363
:103660001297E0E0F0E0D80112968D919C911397AB
:10367000009719F0F8018C01F6CF8D919C9198017B
:103680002E5F3F4F820F931F2091510330915203C1
:103690002817390769F4309729F4109254031092CF
:1036A000530302C0138212821093520300935103FA
:1036B000DF91CF911F910F91089581E090E0F894F0
:1036C0000C94721BFB01DC0102C001900D92415071
:1036D0005040D8F70895DC0101C06D93415050402F
:0836E000E0F70895F894FFCF14
:1036E800FFFFFFFF00E1000000000000000055039D
:1036F800800000C180810000000000000001081760
:103708000A1708660884086408000000007D076935
:10371800074707440761086008000000003001D629
:1037280007E1022F012E018901435055252000256C
:103738000047505525200052414D25200054454D45
:10374800502000435055200020475055200050720B
:10375800696E745F546F5F4C4344004379636C65D2
:103768005F5247425F436F6C6F7273005365745FBB
:1037780046616E5F53706565640049444C4500546A
:083788006D722053766300000E
:1070000055C000006EC000006CC000006AC00000E7
:1070100068C0000066C0000064C0000062C00000DC
:1070200060C000005EC00000FCC400005AC0000048
:1070300058C0000056C0000054C0000052C00000FC
:1070400050C000005DC000004CC000004AC00000FD
:1070500048C0000046C0000044C0000042C000001C
:1070600040C000003EC000003CC000003AC000002C
:1070700038C0000036C0000034C0000032C000003C
:1070800030C000002EC000002CC000002AC000004C
:1070900028C0000026C0000024C0000022C000005C
:1070A00020C000001EC000001CC0000011241FBE34
:1070B000CFEFDAE0DEBFCDBF11E0A0E0B1E0E6E463
:1070C000FFE702C005900D92A43BB107D9F711E08C
:1070D000A4EBB1E001C01D92AD3CB107E1F74FD385
:1070E00030C78ECFF89410926F001092810081E02B
:1070F00085BF15BE47985D9A289A0C9400000895A4
:107100001F920F920FB60F9211242F938F939F937C
:10711000EF93FF9310928500109284008091B40148
:107120009091B501009741F001979093B50180933C
:10713000B401892B09F45D9A8091B6019091B70151
:10714000009741F001979093B7018093B601892B86
:1071500009F4289A8091BA019091BB01019690930D
:10716000BB018093BA01E0E0F0E0859194918F5FDC
:107170009F4F49F08091B8019091B9010196909389
:10718000B9018093B801FF91EF919F918F912F9159
:107190000F900FBE0F901F90189584E08093E90028
:1071A0000DC08091E8008B778093E80003C08EB318
:1071B000882351F08091E80082FFF9CF8091E800A8
:1071C00085FFEFCF8091F1000895982F83E08093A1
:1071D000E9008091E80085FD0DC08091E8008E7780
:1071E0008093E80003C08EB3882369F08091E800A3
:1071F00080FFF9CF9093F1005D9884E690E0909342
:10720000B5018093B40108954F925F926F927F927F
:107210008F929F92AF92BF92CF92DF92EF92FF92A6
:107220000F931F93CF93DF9384E08093E9008091C5
:10723000E80082FF57C2289884E690E09093B70157
:107240008093B601AADF182F853481F48CE49DE188
:107250009093B9018093B80107B600FCFDCFF9996E
:10726000FECF81E180935700E89503C0843519F47F
:1072700094DF8DE00DC28C34E1F38035D1F3843797
:1072800021F484E4A2DF80E003C2813611F489E5B1
:10729000FFC18134B1F481DF182F7FDF90E0880FC8
:1072A000991FAA2797FDA095BA2F312F330F20E001
:1072B000442737FD4095542F822B932BA42BB52BBD
:1072C000B8C1803711F483E5E3C1833549F4C0E0E8
:1072D000D1E089917ADF21E0C730D207D1F7D9C157
:1072E000863521F481E371DF80E3D2C1833731F445
:1072F00087E86BDF85E969DF8EE1CAC18536B9F4BD
:10730000E0E0F0E093E085E090935700E89507B661
:1073100000FCFDCF80935700E89507B600FCFDCF39
:10732000E058FF4FA0E7E030FA0771F7A2CF8237AD
:1073300039F4E1E0F0E089E0809357008491A8C13E
:10734000863439F4E0E0F0E089E0809357008491DE
:107350009FC18E3439F4E3E0F0E089E08093570078
:10736000849196C1813539F4E2E0F0E089E08093C0
:10737000570084918DC1823631F489E526DF80E0A3
:1073800024DF80E885C1823419F0873609F0E5C032
:107390001092B9011092B80100DF082FFEDEF82E1E
:1073A000FCDE682E8554823008F071C1902F80E099
:1073B000CF2DD0E0C82BD92B10926F00173609F0D3
:1073C0004BC081E180935700E895DD24CC24C39421
:1073D0003FC0E090BD01F090BE010091BF0110914F
:1073E000C001B6E46B16D9F4ED2DF0E0EE29FF29CB
:1073F000E4918E2FEADEDD2081F082E090E0A0E0D3
:10740000B0E0E80EF91E0A1F1B1FE092BD01F092CA
:10741000BE010093BF011093C001DC2418C0D80145
:10742000C701B695A7959795879575D5CEDE82E06D
:1074300090E0A0E0B0E0E80EF91E0A1F1B1FE092EA
:10744000BD01F092BE010093BF011093C0012197CE
:10745000209709F0BECF7DC08090BD019090BE0105
:10746000A090BF01B090C00196E4691609F05DC01C
:1074700083E0F40180935700E89507B600FCFDCF48
:1074800054C0F6E46F1661F5772031F1E090BD014C
:10749000F090BE010091BF011091C0017EDED82E98
:1074A000CC24852D90E08C299D29F7010C01409278
:1074B0005700E895112482E090E0A0E0B0E0E80EEB
:1074C000F91E0A1F1B1FE092BD01F092BE0100933E
:1074D000BF011093C00102C060DE582E742423C087
:1074E000E090BD01F090BE010091BF011091C0017C
:1074F00016950795F794E79450DE682FC70113D5CA
:107500008091BD019091BE01A091BF01B091C001D9
:107510000296A11DB11D8093BD019093BE01A09361
:10752000BF01B093C001219704C05524772444249F
:107530004394209709F0A5CF96E4691641F485E0BD
:10754000F40180935700E89507B600FCFDCF8DE06D
:107550003CDE82E080936F009CC0833471F4009124
:10756000BD011091BE0119DE90E021E0F8010C018F
:1075700020935700E89511247CCE833619F5E090CE
:10758000BD01F090BE010091BF011091C00105DE68
:10759000F701E16090E021E00C0120935700E895AD
:1075A000112482E090E0A0E0B0E0E80EF91E0A1F8E
:1075B0001B1FE092BD01F092BE010093BF0110932A
:1075C000C00157CE8D3661F4E091BD01F091BE014E
:1075D00085E080935700E89507B600FCFDCF49CEC3
:1075E000823551F4E091BD01F091BE0105911491F5
:1075F000812FEBDD802F4CC0843421F5E090BD015C
:10760000F090BE010091BF011091C0011695079541
:10761000F794E794C2DD682FC70185D48091BD013E
:107620009091BE01A091BF01B091C0010296A11D31
:10763000B11D8093BD019093BE01A093BF01B09393
:10764000C00117CE843609F5E090BD01F090BE016F
:107650000091BF011091C001D801C701B695A7954F
:107660009795879558D4B1DD82E090E0A0E0B0E036
:10767000E80EF91E0A1F1B1FE092BD01F092BE0129
:107680000093BF011093C00104C08B3111F08FE350
:107690009CDD83E08093E9009091E8008091E80010
:1076A0008E778093E80095FF04C010C08EB38823C6
:1076B000C9F08091E80080FFF9CF8091E8008E77D3
:1076C0008093E80003C08EB3882361F08091E800C6
:1076D00080FFF9CF84E08093E9008091E8008B7708
:1076E0008093E800DF91CF911F910F91FF90EF9071
:1076F000DF90CF90BF90AF909F908F907F906F90D2
:107700005F904F9008959091C501892F8F778132B6
:1077100049F58091C6018032A1F0813219F5913A84
:1077200009F58091E800877F8093E8008CE091E084
:1077300067E070E027D28091E8008B778093E800C3
:107740000895913279F48091E800877F8093E80072
:107750008CE091E067E070E079D28091E8008E776C
:107760008093E800089582E061EC42E0D1D083E0AC
:1077700061E842E1CDD084E060E842E1C9C01F93F6
:10778000209100081092000844B714BE88E10FB69B
:10779000F89480936000109260000FBE80E8E0E0F3
:1077A000F0E00FB6F89480936100E09361000FBEA3
:1077B00031E035BF92E095BF3F9A209A559A809369
:1077C00061001092610047985D9A289A1092890092
:1077D0008AEF8093880090936F0083E0809381000C
:1077E000859194918F5F9F4F11F03093BC01942F3E
:1077F00041FF19C0809109012817A9F08093000862
:10780000789480911301882339F08091BA01909186
:10781000BB018F5E9240C8F3F8941092000881E09B
:10782000809313010CC090FF04C08091BC01882399
:1078300051F493FF09C080910901281729F0809124
:10784000BC01882309F04EDCD4D078941092B901A1
:107850001092B8011EEF20C0D7DC4BD38091B80145
:107860009091B90181549F4110F0109213018091C1
:10787000C1019091C20101969093C2018093C10110
:10788000292F97FF03C0512F591B252F220F28178F
:1078900010F4479801C0479A809113018823E1F6BC
:1078A0008091E00081608093E0001CDC80E090E04B
:1078B0001F910895FA01923049F0933061F09130B0
:1078C000F9F484E191E022E130E01EC086E291E02B
:1078D0002EE330E019C0882329F484E691E024E007
:1078E00030E012C0813029F488E691E02EE130E0EA
:1078F0000BC0823029F488E891E02AE230E004C02D
:1079000080E090E020E030E091838083C901089519
:107910008093E9008091EB0081608093EB001092EE
:10792000ED006093EC004093ED008091EE00881F25
:107930008827881F08958091C50188238CF403C08F
:107940008EB38823B1F08091E80082FFF9CF809157
:10795000E8008B778093E80008958EB3882349F080
:107960008091E80080FFF9CF8091E8008E778093C6
:10797000E8000895EF92FF920F931F9345D04CD0EB
:1079800008ED10E0F80180818F7780838081806826
:10799000808380818F7D808319BC1EBA1092C301C1
:1079A00080EEE82EF12CF70180818B7F8083F80137
:1079B00080818160808380E060E042E0A9DFE1EEC9
:1079C000F0E080818E7F8083E2EEF0E08081816054
:1079D0008083808188608083F70180818E7F8083AF
:1079E000F8018081806180831F910F91FF90EF905B
:1079F0000895E7EDF0E08081816080838AE482BFB2
:107A000081E08093C401B6CFE8EDF0E080818E7F05
:107A100080831092E20008951092DA001092E10043
:107A200008951F920F920FB60F9211242F933F9338
:107A30004F935F936F937F938F939F93AF93BF9376
:107A4000EF93FF938091DA0080FF1BC08091D800F4
:107A500080FF17C08091DA008E7F8093DA008091DA
:107A6000D90080FF0BC080E189BD82E189BD09B4E6
:107A700000FEFDCF81E08EBB3BD203C019BC1EBA15
:107A800037D28091E10080FF17C08091E20080FF33
:107A900013C08091E2008E7F8093E2008091E2002B
:107AA00080618093E2008091D80080628093D8004A
:107AB00019BC85E08EBB1CD28091E10084FF2CC0F4
:107AC0008091E20084FF28C080E189BD82E189BD08
:107AD00009B400FEFDCF8091D8008F7D8093D8003F
:107AE0008091E1008F7E8093E1008091E2008F7EA3
:107AF0008093E2008091E20081608093E2008091B7
:107B0000C301882331F48091E30087FD02C081E046
:107B100001C084E08EBBECD18091E10083FF21C0E5
:107B20008091E20083FF1DC08091E100877F8093F8
:107B3000E10082E08EBB1092C3018091E1008E7F54
:107B40008093E1008091E2008E7F8093E20080913B
:107B5000E20080618093E20080E060E042E0D8DEF5
:107B6000C7D1FF91EF91BF91AF919F918F917F917D
:107B70006F915F914F913F912F910F900FBE0F909A
:107B80001F9018959C014091CB015091CC01461754
:107B9000570718F4F90190E044C06115710511F020
:107BA000AB01F8CF8091E8008E778093E80040E049
:107BB00050E0F0CF8EB3882309F444C0853009F437
:107BC00043C08091E80083FF02C081E00895809166
:107BD000E80082FD31C08091E80080FF22C08091E2
:107BE000F3009091F200782F60E0292F30E0262BEF
:107BF000372B07C081918093F100415050402F5F97
:107C00003F4F4115510519F02830310598F390E0A8
:107C10002830310509F491E08091E8008E77809357
:107C2000E8004115510531F6992321F605C08EB3C0
:107C3000882341F0853041F08091E80082FFF7CF42
:107C400080E0089582E0089583E008959C01611525
:107C5000710529F48091E8008B778093E800F901A1
:107C600026C08EB3882391F1853091F18091E80090
:107C700083FF02C081E008958091E80082FFF1CF88
:107C800006C08091F10081936150704059F02091BD
:107C9000F3008091F200322F20E090E0822B932BB2
:107CA000892B79F78091E8008B778093E800611544
:107CB0007105B9F605C08EB3882341F0853041F0D7
:107CC0008091E80080FFF7CF80E0089582E008957A
:107CD00083E008950F931F93DF93CF9300D0CDB728
:107CE000DEB7E5ECF1E08091F100819381E0ED3CBD
:107CF000F807C9F708DD8091E80083FFE4C08091B0
:107D0000C5019091C601953009F46DC0963040F4DC
:107D1000913081F1913070F0933009F0D4C02AC0D5
:107D2000983009F4A3C0993009F4B2C0963009F034
:107D3000CAC07CC0803809F4C6C0823809F0C3C00C
:107D40008091C90187708093E9008091EB001092C7
:107D5000E9002091E800277F2093E80090E025E0EB
:107D6000969587952A95E1F781708093F10010929E
:107D7000F10087C0882319F0823009F0A4C08F7108
:107D8000823009F0A0C08091C701882331F520918D
:107D9000C901277009F497C02093E9008091EB0096
:107DA00080FF1BC0933021F48091EB00806213C0F0
:107DB0008091EB0080618093EB0081E090E002C055
:107DC000880F991F2A95E2F78093EA001092EA0043
:107DD0008091EB0088608093EB001092E900809125
:107DE000E800877F51C0882309F06DC01091C7015A
:107DF0001F770FB7F8948091E800877F8093E800A1
:107E00009ADD8091E80080FFFCCF8091E3008078CC
:107E1000812B8093E30080688093E300112311F4A9
:107E200082E001C083E08EBB0FBF4DC0805882301E
:107E300008F049C08091C7019091C8016091C901C3
:107E4000AE014F5F5F4F36DDBC01009709F43BC0C8
:107E50008091E800877F8093E80089819A8192DE93
:107E60008091E8008B778093E8002DC0803859F529
:107E70008091E800877F8093E8008091C301809320
:107E8000F1008091E8008E778093E80054DD1BC0FC
:107E90008823C9F49091C7019230A8F48091E8003A
:107EA000877F8093E8009093C30145DD8091C301F3
:107EB000882331F48091E30087FD02C081E001C096
:107EC00084E08EBB50DC8091E80083FF0AC0809183
:107ED000EB0080628093EB008091E800877F8093C5
:107EE000E8000F900F90CF91DF911F910F910895AF
:107EF00008951F938EB3882361F01091E9001092CA
:107F0000E9008091E80083FF01C0E4DE1770109360
:107F1000E9001F910895F999FECF92BD81BDF89AAD
:107F2000992780B50895262FF999FECF1FBA92BDE3
:107F300081BD20BD0FB6F894FA9AF99A0FBE01964A
:067F40000895F894FFCF44
:107F46004341544552494E41007700080000000065
:107F56000000080112011001020000084F1B0592E3
:107F660001000201000109023E00020100803209FF
:107F7600040000010202010005240010010424028D
:107F8600040524060001070582030800FF09040111
:107F960000020A000000070504021000010705831D
:107FA60002100001040309041E03500072006F0052
:107FB60020004D006900630072006F00200035004C
:107FC60056002000200000002A03530070006100C4
:107FD60072006B00460075006E00200045006C00C4
:107FE60065006300740072006F006E006900630034
:047FF6007300000014
:040000030000700089
:00000001FF
