:100000000C9467000C948F000C948F000C948F005C
:100010000C948F000C948F000C943F0E0C948F0066
:100020000C948F000C948F000C948F000C948F0014
:100030000C948F000C948F000C948F000C948F0004
:100040000C9415060C948F000C942D0A0C94070A3E
:100050000C948F000C948F000C948F000C948F00E4
:100060000C945F060C948F00DF12DF12DF12EE1289
:100070008E139C13DF12DF12EE128E1300000008A5
:10008000000201000003040700000000000000005F
:1000900000000000250028002B00000000002400C4
:1000A00027002A00040404040404040402020202D7
:1000B000020203030303030301020408102040802B
:1000C00001020408102001020408102094161124D3
:1000D0001FBECFEFD8E0DEBFCDBF11E0A0E0B1E0A2
:1000E000EAE7F8E302C005900D92A03BB107D9F70B
:1000F00023E0A0EBB1E001C01D92A739B207E1F700
:1001000010E0C7E6D0E004C02197FE010E94AB18C2
:10011000C636D107C9F70E948A150C943B1C0C9473
:10012000000008950895DC01ED91FC910284F385AF
:10013000E02D41E0099581E090E00895089508954B
:10014000CF93DF93FC0184858823B1F02289A089B5
:10015000B1898785C585D6853FB7F8949881809504
:100160008923888388E09C91922B9C939C91922771
:100170009C938150C1F73FBF2289A089B1893785FF
:10018000C585D68588E0732F7095522F50954FB74F
:10019000F894988167FF02C0932B01C0972398833E
:1001A000660F9C91922B9C939C9195239C934FBF9F
:1001B000815069F79FB7F894A389B4892C918589F8
:1001C000822B8C93A389B4892C91858982278C9367
:1001D0009FBFDF91CF910895FF920F931F93CF930D
:1001E000DF938C01C62FD0E0413021F0F12C42305A
:1001F00069F002C024E0F22E9E0135952795622F0A
:10020000687760686F29C8010E94A00083E0CC0F66
:10021000DD1F8A95E1F7C877C0686C2F6F29C80188
:100220000E94A000F8018485882319F083E290E001
:1002300002C08FE390E00197F1F7DF91CF911F911A
:100240000F91FF900895EF92FF920F931F93CF931A
:1002500082EDE82E81E0F82EF7018081918104E69D
:1002600010E0B8010E947518CFEFC69FC001C79F6C
:10027000900D1124BC0183E00E94AB0AF70182813A
:100280009381B8010E947518C69FC001C79F900D49
:100290001124BC0185E0CF911F910F91FF90EF9049
:1002A0000C94AB0ACF93DF938091D8019091D90140
:1002B000019779F5C4E6D0E060E070E086E00E9446
:1002C000AB0A60E070E089E00E94AB0A60E070E099
:1002D0008AE00E94AB0A0E94F616219769F7C4E6ED
:1002E000D0E060E070E086E00E94AB0A60E070E081
:1002F00089E00E94AB0A60E070E08AE00E94AB0AED
:100300000E94F616219769F71092D9011092D80130
:1003100022C02091D6013091D70186E480937C00E1
:1003200080917A00806480937A0080917A0086FDC3
:10033000FCCF809178004091790090E0942B2817B1
:10034000390749F06091D6017091D70186E0DF91BD
:10035000CF910C94AB0ADF91CF910895CF92DF92A9
:10036000EF92FF920F931F93CF93DF930091CC01F5
:100370001091CD0180E00E94F50B86E391E00E9490
:10038000F00BC8016AE070E00E947518072E000C9F
:10039000880B990B0E947C1B0E94C5186B017C0185
:1003A000C1E0D0E0BE010D2E000C880B990B0E941D
:1003B0007C1BA70196010E94751B18163CF06FEF7D
:1003C0008EE593E00E9493002196ECCF88E491E0C3
:1003D000CB30D10524F40E94F00B2196F7CF0E9478
:1003E000F00B0436110524F488E491E00E94F00B30
:1003F000C8010E94E10B8CE391E00E94F00B009198
:10040000CE011091CF0181E00E94F50B8EE391E0C7
:100410000E94F00BC8016AE070E00E947518072E78
:10042000000C880B990B0E947C1B0E94C5186B0165
:100430007C01C1E0D0E0BE010D2E000C880B990BB1
:100440000E947C1BA70196010E94751B18163CF0A8
:100450006FEF8EE593E00E9493002196ECCF88E445
:1004600091E0CB30D10524F40E94F00B2196F7CF18
:100470000E94F00B0436110524F488E491E00E94F8
:10048000F00BC8010E94E10B8CE391E00E94F00B9D
:100490000091D0011091D10182E00E94F50B84E41B
:1004A00091E00E94F00BC8016AE070E00E947518AC
:1004B000072E000C880B990B0E947C1B0E94C5180C
:1004C0006B017C01C1E0D0E0BE010D2E000C880B59
:1004D000990B0E947C1BA70196010E94751B1816A0
:1004E0003CF06FEF8EE593E00E9493002196ECCFF5
:1004F00088E491E0CB30D10524F40E94F00B2196E2
:10050000F7CF0E94F00B0436110524F488E491E043
:100510000E94F00BC8010E94E10B8CE391E00E9465
:10052000F00BC091CA01D091CB010091C80110918C
:10053000C90183E00E94F50B8AE491E00E94F00B70
:1005400080E591E00E94F00B0436110524F488E464
:1005500091E00E94F00BC8010E94E10B85E591E05B
:100560000E94F00BC436D10524F488E491E00E9487
:10057000F00BCE01DF91CF911F910F91FF90EF9083
:10058000DF90CF900C94E10BCF92DF92EF92FF922D
:100590000F931F93CF93DF93CDB7DEB762970FB65C
:1005A000F894DEBF0FBECDBF6AE2CE0101960E9475
:1005B000840BCE0101960E947B096EE3CE01079663
:1005C0000E94840B4B855C856F81788581EC92E07D
:1005D0000E94D1076BE571E081EC92E00E948009F6
:1005E0001A8219821C821B821E821D8240E050E00A
:1005F0006DE571E0CE0101960E9450096EE571E053
:10060000CE0107960E94D108882309F456C06AE3F8
:10061000CE010D960E94840BCE010D960E94C60855
:100620006B017C01CE010D960E947B09CA94CD28F6
:1006300091F590EBE92E91E0F92E00E010E06CE2EC
:10064000CE010D960E94840BBE01635F7F4FCE01E9
:1006500001960E94F008CE010D960E947B09CE0102
:1006600001960330110524F40E94C608F70104C066
:100670000E94C608F701369771836083CE01019608
:100680000E94D40B0F5F1F4FF2E0EF0EF11C0630FB
:100690001105A9F63CC06CE2CE010D960E94840BB8
:1006A000CE010D960E94C6087093D7016093D601C3
:1006B000CE010D960E947B092AC063E671E0CE014F
:1006C00007960E94D108882361F102ED11E06CE2E7
:1006D000CE010D960E94840BBE01635F7F4FCE0159
:1006E00001960E94F008CE010D960E947B09CE0172
:1006F00001960E94C608F801619371938F01CE01A3
:1007000001960E94D40BF1E0063D1F0701F76BE351
:10071000CE010D960E94840BCE010D960E947B099E
:100720009AC068E671E0CE0107960E94D10888233E
:1007300009F491C0C12CD12C76012AE0B701A601A1
:1007400081EC92E00E9495096BE571E081EC92E00A
:100750000E9480096AE3CE010D960E94840BBE01BF
:10076000635F7F4FCE0101960E94F008CE010D9687
:100770000E947B096DE671E0CE0101960E94D108CE
:10078000882361F10CEC11E06CE2CE010D960E9421
:10079000840BBE01635F7F4FCE0101960E94F0087B
:1007A000CE010D960E947B09CE0101960E94C608DB
:1007B000F801619371938F01CE0101960E94D40BD1
:1007C000F1E0023D1F0701F76BE3CE010D960E9499
:1007D000840BCE010D960E947B092AC062E771E06E
:1007E000CE0101960E94D108882311F108EC11E096
:1007F0006CE2CE010D960E94840BBE01635F7F4FB9
:10080000CE0101960E94F008CE010D960E947B0950
:10081000CE0101960E94C608F801619371938F0181
:10082000CE0101960E94D40BF1E00C3C1F0701F7AA
:100830006BE3CE010D960E94840BCE010D960E94B3
:100840007B09CA94CD28CE28CF2829F0C12CD12CE1
:100850007601C39472CFCE0101960E947B09CE012E
:1008600007960E947B0962960FB6F894DEBF0FBE12
:10087000CDBFDF91CF911F910F91FF90EF90DF904F
:10088000CF900895DC01ED91FC910284F385E02D79
:1008900040E009948F929F92AF92BF92CF92DF92E5
:1008A000EF92FF920F931F93CF93DF93EC014230AF
:1008B00018F08C8188608C834F836887222329F00D
:1008C000413019F48C8184608C830E94F0054B01C7
:1008D0005C0184E6C82ED12CE12CF12C0E94F0059D
:1008E000DC01CB0188199909AA09BB09883E93400C
:1008F000A105B10558F021E0C21AD108E108F108BC
:1009000088EE880E83E0981EA11CB11CC114D1048E
:10091000E104F10419F76C8164FD31C0E881F981CB
:100920000284F385E02D42E063E0CE0109958BE47B
:1009300096E40197F1F7E881F9810284F385E02DCF
:1009400042E063E0CE01099503E512E0C80101979A
:10095000F1F7E881F9810284F385E02D42E063E05C
:10096000CE010995C8010197F1F7E881F981028468
:10097000F385E02D42E062E0CE01099517C0606288
:10098000CE010E9442048BE496E40197F1F76C815A
:100990006062CE010E94420403E512E0C8010197A3
:1009A000F1F76C816062CE010E944204C801019798
:1009B000F1F76C816062CE010E9442048BEE90E000
:1009C0000197F1F784E08D836CE0CE010E94420430
:1009D00061E0CE010E9442048BE39FE10197F1F7B1
:1009E00082E08E8366E0CE010E944204E881F981B4
:1009F0000084F185E02D6FEFCE01DF91CF911F9143
:100A00000F91FF90EF90DF90CF90BF90AF909F90AD
:100A10008F9009940F931F93E1ECF2E0A089B189C4
:100A200082E08C93A089B1891C92A485B5851C9223
:100A3000A685B78580E18C93108EA489B58986E060
:100A40008C93A289B3898C9180618C93A289B3899C
:100A50008C9188608C93A289B3898C9180688C93E7
:100A60000288F389E02D80818F7D808381EC92E084
:100A70000E949C0883E00E944F0B85E00E944F0B70
:100A800086E00E944F0B89E00E944F0B8AE00E9493
:100A90004F0B20E044E064E18EE593E00E944A04BD
:100AA00000E010E022E040E850E067E771E08EEA05
:100AB00091E00E94041722E040E850E064E871E011
:100AC00082E591E00E94041722E040E850E065E9E9
:100AD00071E083E291E00E9404171F910F91089545
:100AE00085ED8093BC008091BC0084FDFCCF10920A
:100AF0002802089540910202262F30E0240F311D74
:100B000021323105DCF4209128022430C9F4FC01A3
:100B100080E090E0861758F4309102022191DC01C8
:100B2000A052BE4FA30FB11D2C930196F3CF80911D
:100B30000202680F6093020280E0089581E0089548
:100B400082E0089508958FEF9FEF08958FEF9FEF54
:100B500008958091DF0190E0919581959109089524
:100B6000CF93DF9300D0CDB7DEB7CB01642F49839D
:100B70005A830E947A054981842F5A81952F0F90BC
:100B80000F90DF91CF910895CF93DF931F92CDB750
:100B9000DEB7698361E0CE0101960E947A0581E0AB
:100BA00090E00F90DF91CF910895E0917702F0915E
:100BB00078028081811103C08FEF9FEF0CC0E0911C
:100BC0007702F09178020580F681E02D0680F781AA
:100BD000E02D82819381909358028093570208956B
:100BE0003FB7F89480914F0290915002A09151022A
:100BF000B091520226B5A89B05C02F3F19F001966F
:100C0000A11DB11D3FBFBA2FA92F982F8827820F92
:100C1000911DA11DB11DBC01CD0142E0660F771FE2
:100C2000881F991F4A95D1F708951F920F920FB60A
:100C30000F9211242F933F938F939F93AF93BF9362
:100C40008091BD029091BE02A091BF02B091C002FE
:100C500030914E0223E0230F2D3720F40196A11D81
:100C6000B11D05C026E8230F0296A11DB11D2093DA
:100C70004E028093BD029093BE02A093BF02B09338
:100C8000C00280914F0290915002A0915102B09108
:100C900052020196A11DB11D80934F029093500204
:100CA000A0935102B0935202BF91AF919F918F9147
:100CB0003F912F910F900FBE0F901F9018951F928C
:100CC0000F920FB60F9211242F933F934F935F9380
:100CD0006F937F938F939F93AF93BF93EF93FF9304
:100CE0008091B900887F803609F49CC068F588320D
:100CF00009F45BC090F4803109F454C038F48823BF
:100D000009F4F6C0883009F44DC0F6C0883109F402
:100D10004CC0803209F45DC0EFC0803409F468C073
:100D200048F4803309F455C0883309F0E5C0809356
:100D30002702D8C0803509F44FC0883509F45DC05A
:100D4000883409F0D9C0D6C0883909F4C7C0A8F4DE
:100D5000883709F467C038F4883609F463C08037EF
:100D600009F460C0C9C0883809F4B8C0803909F4F2
:100D70005FC0803809F0C0C05BC0803B09F486C00A
:100D800038F4803A09F466C0883A09F47FC0B4C0E8
:100D9000803C09F4A7C0883C09F4A4C0883B09F44E
:100DA0008AC0AAC080914D0210C090914C028091DF
:100DB0004B02981770F5E0914C0281E08E0F809302
:100DC0004C02F0E0E55DFD4F80818093BB0085EC37
:100DD00086C0809327028EC0E0914C0281E08E0F86
:100DE00080934C028091BB00F0E0E55DFD4F808375
:100DF00090914C0280914B026EC0E0914C0281E0D8
:100E00008E0F80934C028091BB00F0E0E55DFD4FBA
:100E1000808380912A0281116DC081E08093290234
:100E200084EA61C083E08093280210922602CFCF2B
:100E300080912602803208F051C0E091260281E0C4
:100E40008E0F809326028091BB00F0E0EA5FFD4F99
:100E50008083BDCF85EC8093BC00109228028091E6
:100E60002602803230F4E0912602F0E0EA5FFD4F86
:100E700010826091260270E0E0910402F091050278
:100E800086E092E009951092260236C084E08093B5
:100E900028021092030210920202E0910002F091E7
:100EA0000102099580910202811105C081E08093C1
:100EB00002021092E001E091030281E08E0F809324
:100EC0000302F0E0E052FE4F80818093BB009091DE
:100ED000030280910202981708F479CF85E8809385
:100EE000BC000AC085EC8093BC001092280204C0AC
:100EF000109227020E947005FF91EF91BF91AF9170
:100F00009F918F917F916F915F914F913F912F9121
:100F10000F900FBE0F901F901895259A2D9A2FEFC6
:100F200080E792E0215080409040E1F700C000004F
:100F30001D9AF5CF8091DC01882349F10E94EC0DC8
:100F4000C09182020E941611CC23A1F30FB6F8942F
:100F50000F92E0918702F0918802C681D781CE017D
:100F600002960E94420E8091BC0281508093BC0286
:100F70008091DC0181508093DC010F900FBE8F893E
:100F8000988D0E94890FCE010E94890FD3CF809146
:100F90009402823010F00E94860E0E94BE08CACFD2
:100FA0000895CF92DF92EF92FF920F931F93CF930A
:100FB000DF936C017A018B01C0E0D0E0CE15DF0534
:100FC00089F0D8016D918D01D601ED91FC910190D0
:100FD000F081E02DC6010995892B11F47E0102C034
:100FE0002196ECCFC701DF91CF911F910F91FF9018
:100FF000EF90DF90CF900895FC01918D828D98172E
:1010000061F0828DDF01A80FB11D5D968C91928DEC
:101010009F5F9F73928F90E008958FEF9FEF0895E9
:10102000FC01918D828D981731F0828DE80FF11DB2
:10103000858D90E008958FEF9FEF0895FC01918DCD
:10104000228D892F90E0805C9F4F821B91098F73C6
:101050009927089581EC92E00E941E0821E0892BD7
:1010600009F420E0822F0895FC01848DDF01A80F90
:10107000B11DA35ABF4F2C91848D90E001968F73C0
:101080009927848FA689B7892C93A089B1898C91DF
:1010900080648C93938D848D981306C00288F389A5
:1010A000E02D80818F7D80830895EF92FF920F93D2
:1010B0001F93CF93DF93EC0181E0888F9B8D8C8D04
:1010C000981305C0E889F989808185FD24C0F62E32
:1010D0000B8D10E00F5F1F4F0F731127E02E8C8DCB
:1010E000E8120CC00FB607FCFACFE889F9898081B5
:1010F00085FFF5CFCE010E943408F1CF8B8DFE0124
:10110000E80FF11DE35AFF4FF0820B8FEA89FB894C
:101110008081806207C0EE89FF896083E889F98950
:1011200080818064808381E090E0DF91CF911F9186
:101130000F91FF90EF900895CF93DF93EC01888D8E
:101140008823C9F0EA89FB89808185FD05C0A889CB
:10115000B9898C9186FD0FC00FB607FCF5CF808151
:1011600085FFF2CFA889B9898C9185FFEDCFCE019B
:101170000E943408E7CFDF91CF9108950E942A089A
:1011800081110C94C40208950E94141BFC018081FB
:101190009181009711F00C94391B60E070E0CB0155
:1011A0000895FC0124813581232B31F421E0611560
:1011B0007105A1F0FB0108C0FC01808191816115DE
:1011C000710531F421E0FC018081882339F005C0EC
:1011D0000E94291B21E0892B09F020E0822F08952D
:1011E0000F931F93CF93DF938C01EB01FC01808160
:1011F00091810097B1F0688179816115710579F06D
:10120000428153812C813D814217530740F00E9457
:10121000321B8C819D81F8019583848313C00E94C9
:10122000B21988819981F801918380838A819B8199
:10123000938382838C819D81958384831982188214
:101240001B821A821D821C82DF91CF911F910F9108
:1012500008950F931F93CF93DF93EC0188819981B9
:10126000009729F02A813B812617370788F48B01E4
:101270006F5F7F4F0E944A1A009761F099838883BD
:101280001B830A832C813D81232B11F4FC011082E6
:1012900081E001C080E0DF91CF911F910F9108950F
:1012A000EF92FF920F931F93CF93DF93EC017B019B
:1012B0008A01BA010E9429092881398181110DC052
:1012C0002115310519F0C9010E94B219198218823D
:1012D0001D821C821B821A8206C01D830C83B701EB
:1012E000C9010E94321BCE01DF91CF911F910F9156
:1012F000FF90EF900895FC01808191810C94B219C8
:101300006115710579F0FB0101900020E9F7319733
:10131000AF01461B570BDC01ED91FC910280F3817C
:10132000E02D099480E090E008954F925F926F92D3
:101330007F92EF92FF920F931F93CF93DF93CDB7DE
:10134000DEB7A1970FB6F894DEBF0FBECDBF7C010C
:10135000FA01CB0119A2223008F42AE08E010F5DB8
:101360001F4F422E512C612C712CBF01A301920101
:101370000E948918F901CA01015011096A3014F458
:10138000605D01C0695CD8016C93232B242B252B55
:1013900061F7B801C7010E948009A1960FB6F894C1
:1013A000DEBF0FBECDBFDF91CF911F910F91FF9098
:1013B000EF907F906F905F904F900895CF92DF9263
:1013C000EF92FF920F931F93CF93DF93EC016A018B
:1013D0007B01E881F9810190F081E02D6DE20995B2
:1013E0008C0144275527BA014C195D096E097F0904
:1013F0002AE0CE010E949509800F911FDF91CF91C5
:101400001F910F91FF90EF90DF90CF9008951F9262
:101410000F920FB60F9211242F933F934F935F9328
:101420006F937F938F939F93AF93BF93EF93FF93AC
:1014300081EC92E00E943408FF91EF91BF91AF914F
:101440009F918F917F916F915F914F913F912F91DC
:101450000F900FBE0F901F9018951F920F920FB60E
:101460000F9211242F938F939F93EF93FF93E0910B
:10147000D102F091D2028081E091D702F091D8029E
:1014800082FD12C090818091DA028F5F8F7320916C
:10149000DB02821751F0E091DA02F0E0EF53FD4FEA
:1014A000958F8093DA0201C08081FF91EF919F9127
:1014B0008F912F910F900FBE0F901F90189590E075
:1014C000FC01E458FF4F3491FC01E854FF4F249194
:1014D000FC01EC55FF4FE491EE2309F43BC03323AC
:1014E00039F1333091F038F43130A9F0323001F570
:1014F00084B58F7D12C0373091F03830A1F0343090
:10150000B9F4809180008F7D03C0809180008F7737
:10151000809380000DC084B58F7784BD09C0809111
:10152000B0008F7703C08091B0008F7D8093B000B2
:10153000F0E0EE0FFF1FE057FF4FA591B4918FB77A
:10154000F894EC91611103C020952E2301C02E2B3D
:101550002C938FBF08951F93CF93DF93182FEB0128
:101560000E944F0B209711F460E004C0CF3FD105DB
:1015700039F461E0812FDF91CF911F910C945F0AC4
:10158000E12FF0E0E458FF4FE491E330F9F048F444
:10159000E130B9F0E230A1F584B5806284BDC8BD08
:1015A00034C0E730E9F0E83019F1E43049F58091D2
:1015B0008000806280938000D0938B00C0938A006B
:1015C00024C084B5806884BDC7BD1FC080918000E1
:1015D000806880938000D0938900C093880015C0F4
:1015E0008091B00080688093B000C093B3000DC0BC
:1015F0008091B00080628093B000C093B40005C0B9
:10160000C038D1050CF0B5CFAFCFDF91CF911F918E
:1016100008952FB7F8948091BD029091BE02A091D9
:10162000BF02B091C0022FBF8093C9029093CA023B
:10163000A093CB02B093CC02E091C102F091C20220
:101640000680F781E02D81EC92E0099597FF26C096
:101650002FB7F8948091BD029091BE02A091BF0275
:10166000B091C0022FBF4091C9025091CA0260914F
:10167000CB027091CC02841B950BA60BB70B40914B
:10168000C5025091C6026091C7027091C8028417CA
:101690009507A607B70780F28FEF9FEF089590E0B8
:1016A000FC01E854FF4F2491FC01EC55FF4F84915D
:1016B000882399F090E0880F991FFC01E656FF4FB0
:1016C000A591B491FC01E057FF4F859194918FB79C
:1016D000F894EC91E22BEC938FBF0895CF93C82F31
:1016E0000E944F0B60E08C2F0E945F0AEC2FF0E00D
:1016F000EC55FF4FE491F0E0EE0FFF1FE057FF4F76
:1017000085919491CF910895CF92DF92EF92FF92BD
:101710000F931F93CF93DF9300D0CDB7DEB78C012B
:10172000C62EFC011182108213821282158214824D
:1017300040E050E06DE571E00E9450090E94090B05
:101740000C2C000CDD0897FD23C08C159D0501F1C4
:1017500089831A82F801E480F580FFEFEF1AFF0A0F
:10176000B701C8010E942909882379F0F801208176
:10177000318184819581BE016F5F7F4F820F931FFE
:101780000E94321BF801F582E4820E94090BDBCF34
:10179000C8010F900F90DF91CF911F910F91FF9093
:1017A000EF90DF90CF900895CF93DF93EC0140E06E
:1017B00050E06DE571E00E945009CE01DF91CF91BC
:1017C0000895AC01990F660B770B77FF04C08EE587
:1017D00093E00C94DE092AE08EE593E00C949509E1
:1017E000BC018EE593E00C948009CF93DF93CDB7D5
:1017F000DEB728970FB6F894DEBF0FBECDBF1D82AF
:1018000090E49E8324E12F8324E5288719829A831C
:1018100090E19B8390E59C8320916503821710F0F3
:101820008FEF820F3091660390E0FE01E80FF91F01
:10183000303121F4243011F4618101C06581606888
:101840008EE593E028960FB6F894DEBF0FBECDBFAD
:10185000DF91CF910C9442040F920FB6F8940F923F
:101860001F9211242F923F924F925F926F927F921C
:101870008F929F92AF92BF92CF92DF92EF92FF92A0
:101880000F931F932F933F934F935F936F937F9388
:101890008F939F93AF93BF93CF93DF93EF93FF9378
:1018A000A091BA02B091BB020DB60D920EB60D9288
:1018B00013BE809159028111F1C080915C02909118
:1018C0005D02019690935D0280935C02009799F50A
:1018D0002091770230917802409175025091760202
:1018E00050937802409377023093760220937502EA
:1018F00020915E022F5F20935E02E0917702F091CB
:1019000078022081211107C02FEF3FEF309358025A
:101910002093570210C0E0917702F0917802058081
:10192000F681E02D0680F781E02D2281338130930E
:101930005802209357022091570230915802821783
:10194000930710F420E09AC020E019E0E0917702BC
:10195000F09178023081311107C08FEF9FEF9093A3
:101960005802809357028AC0E0917702F091780282
:101970000580F681E02D0680F781E02D42815381BC
:101980008417950728F4509358024093570276C065
:10199000AF014E5F5F4FA285B38564817581E6809C
:1019A000F780EB01FD82EC82C681D7817B836A835D
:1019B00011966D917C9112976417750721F4129618
:1019C000DC93CE931197138612863C9131503C9351
:1019D000A489B5891097F1F066857785E088F1884C
:1019E000EB01FD82EC82C089D1897B836A831196E9
:1019F000ED90FC901297BF01645F7F4FE616F706EB
:101A000021F41296DC93CE931197158A148A3C9197
:101A100031503C93A6893091B8023A1710F4A09344
:101A2000B8021A9FD0011124BD016C567D4F7B0175
:101A3000DB011196CD91DC911297D583C4836C8123
:101A40007D81778366836C817D81DB0113965C9356
:101A50004E9312975D834C83F386E286E7013881CB
:101A60003F5F3883A091BA02B091BB024689569677
:101A70003C91431708F46ACF21E068CFE091BA02A5
:101A8000F091BB02E689D9E0ED9FF0011124EC56FC
:101A9000FD4F8081823040F021E006C08091DA0164
:101AA0008F5F8093DA0120E08091DB01811103C018
:101AB000222309F466C080915902882321F081E035
:101AC0008093DB015EC01092DB01A091BA02B0915D
:101AD000BB02E091BA02F091BB022D913C91878943
:101AE000908D82179307A8F08091BA029091BB0263
:101AF0008091BA029091BB02259A2D9A2FEF67EA46
:101B000071E6215060407040E1F700C000001D9A6E
:101B1000F5CF8091B80269E001C08150482F50E0B4
:101B2000649F9001659F300D1124F901EC56FD4F23
:101B30009081992391F3A181B28112960D90BC916D
:101B4000A02DB283A18329563D4FA217B30731F4CC
:101B500012962D913C9113973283218399E0949FA3
:101B6000F001959FF00D1124EC56FD4F0180F2819C
:101B7000E02D268137813093BB022093BA028093F7
:101B8000B802A091BA02B091BB02CD91CDBFDD9158
:101B9000DEBFFF91EF91DF91CF91BF91AF919F9108
:101BA0008F917F916F915F914F913F912F911F91F5
:101BB0000F91FF90EF90DF90CF90BF90AF909F90EC
:101BC0008F907F906F905F904F903F902F901F90DD
:101BD0000F900FBE0F900895809159028F5F8093F0
:101BE000590208950FB6F8940F92FC01928D0F9050
:101BF0000FBE81E0911180E00895EF92FF920F9364
:101C00001F93CF93DF93EC010FB6F8940F921E8DC4
:101C10007C0181E1E80EF11C01E011165CF4898978
:101C2000882341F0C7010E94D61081110093DB0187
:101C30001150F3CF8FEF8E8F0F900FBE0FB6F89429
:101C40000F921D8D7E0188E0E80EF11C01E0111657
:101C50005CF48885882341F0C7010E94D610811169
:101C60000093DB011150F3CF8FEF8D8F0F900FBEDC
:101C7000DF91CF911F910F91FF90EF9008950E94F7
:101C80002C0C1895CF93DF93FC01A085B185828140
:101C9000938124813581EC013D832C83C481D581DE
:101CA0009B838A8311968D919C9112978E179F0723
:101CB00021F41296DC93CE931197118610868C91A5
:101CC00081508C93DF91CF910895CF93DF939C0146
:101CD000FB01DC011196CD91DC911297D383C28375
:101CE0008C819D81958384838C819D81DC011396F9
:101CF0007C936E9312977D836C8331872087F901E3
:101D000080818F5F8083DF91CF9108950F920FB60E
:101D1000F8940F921F9211242F923F924F925F924C
:101D20006F927F928F929F92AF92BF92CF92DF92EB
:101D3000EF92FF920F931F932F933F934F935F93D5
:101D40006F937F938F939F93AF93BF93CF93DF93C3
:101D5000EF93FF93A091BA02B091BB020DB60D9222
:101D60000EB60D9280915902882321F081E0809374
:101D7000DB015EC01092DB01A091BA02B091BB0200
:101D8000E091BA02F091BB022D913C918789908D30
:101D900082179307A8F08091BA029091BB028091BC
:101DA000BA029091BB02259A2D9A2FEF87EA91E60D
:101DB000215080409040E1F700C000001D9AF5CF0F
:101DC0008091B80269E001C08150482F50E0649FC3
:101DD0009001659F300D1124F901EC56FD4F908163
:101DE000992391F3A181B28112960D90BC91A02DFF
:101DF000B283A18329563D4FA217B30731F412963F
:101E00002D913C9113973283218399E0949FF001A7
:101E1000959FF00D1124EC56FD4F0180F281E02DCD
:101E2000268137813093BB022093BA028093B80297
:101E3000A091BA02B091BB02CD91CDBFDD91DEBFC2
:101E4000FF91EF91DF91CF91BF91AF919F918F91D2
:101E50007F916F915F914F913F912F911F910F91C2
:101E6000FF90EF90DF90CF90BF90AF909F908F90BA
:101E70007F906F905F904F903F902F901F900F90AA
:101E80000FBE0F9008950F931F93CF93DF938C0194
:101E9000FB01808191818F3F2FEF920721F4E801B0
:101EA000AF81B8850EC0D801139612962D913C9142
:101EB0001397E901488159818417950710F0D901DA
:101EC000F4CF12968D919C91139793838283EC01AA
:101ED000FD83EC83B583A4831396FC93EE93129752
:101EE00011870087F80180818F5F8083DF91CF9118
:101EF0001F910F910895FC010396928381832FEF28
:101F00003FEF348323839683858390878783108272
:101F10000895CF93DF93009751F0EC010E94EC0DF0
:101F2000CE010E94B219DF91CF910C941611DF916E
:101F3000CF9108950F931F93CF93DF9300D0CDB728
:101F4000DEB789839A830E94EC0D89819A810E9471
:101F50001D198C010E9416110115110511F40E9422
:101F60008D07C8010F900F90DF91CF911F910F91B6
:101F700008950FB6F8940F9280915C0290915D02E3
:101F80000F900FBE0895FC01738362839187808751
:101F90004617570778F0421B530B848595854817E1
:101FA0005907C8F4BF016E5F7F4F80915302909133
:101FB00054020DC04217530718F46217730758F400
:101FC000BF016E5F7F4F80915502909156020E9433
:101FD000430F80E0089581E00895EF92FF920F9300
:101FE0001F93CF93DF93E0915502F09156028081C9
:101FF000882369F10580F681E02D00811181C68179
:10200000D7817E0182E0E80EF11CC7010E94420EDA
:10201000E989FA89CE0109958E85813021F72C85D1
:102020003D85200F311F0217130760F43B832A837D
:10203000D987C887B70180915502909156020E94B6
:10204000430FD1CFB801CE010E946115CCCF809152
:102050005302909154029093560280935502F0934C
:102060005402E0935302DF91CF911F910F91FF90A3
:10207000EF900895EF92FF920F931F93CF93DF930A
:102080001F92CDB7DEB77C0100915C0210915D021A
:102090008091BA029091BB02029669830E94420E1F
:1020A00069818FEFE816F80699F4662389F060914C
:1020B000BA027091BB026E5F7F4F89E792E00F908A
:1020C000DF91CF911F910F91FF90EF900C94650ECF
:1020D000E00EF11EE091BA02F091BB02F382E282BF
:1020E0006091BA027091BB02E016F10678F480911B
:1020F0007502909176026E5F7F4F0F90DF91CF91C6
:102100001F910F91FF90EF900C94430F80917702F5
:10211000909178026E5F7F4F0E94430F809157022B
:1021200090915802E816F90620F4F0925802E092D5
:1021300057020F90DF91CF911F910F91FF90EF9079
:102140000895FC010FB6F8940F9280915C02909173
:102150005D02DB012D913C912F3FBFEF3B0701F169
:10216000B0915E02A08141815281BA1719F08417A3
:102170009507C0F4DC01A41BB50BA217B30790F4BC
:10218000481B590B240F351FDB012D933C93809185
:102190005E02808380915C0290915D0292838183D4
:1021A00080E001C081E00F900FBE08950F931F9350
:1021B000CF93DF93DC011596ED91FC911697C681C4
:1021C000D7818E01045F1F4FC8010E94420E80918B
:1021D0005902811114C00A501109C8010E94420E0F
:1021E0009E898091B802891710F49093B802B9E0E3
:1021F0009B9FC0011124B8018C569D4F03C0B801AC
:102200008BE892E00E94650EE091BA02F091BB0269
:102210009E898689891720F481E08093DB0101C0C3
:1022200080E0DF91CF911F910F9108958F929F923F
:10223000AF92BF92CF92DF92EF92FF920F931F93D4
:10224000CF93DF930FB6F8940F928091590281508B
:102250008093590280915902882311F080E0F2C0E6
:102260008091BC028823D1F3C0E0D0E029E0F22EB7
:10227000EE24E39480918B02882351F1E091900247
:10228000F0919102C681D781CE010C960E94420E38
:102290008E010E5F1F4FC8010E94420E9E898091E1
:1022A000B802891710F49093B802F99EC001112466
:1022B000B8018C569D4F0E94650EE091BA02F091D4
:1022C000BB029E8986899817A8F2E092DB01D2CFE3
:1022D000CD2B11F00E94D505E090DA01EE2009F433
:1022E000A9C089E0B82EAA24A394CC24CA94DC2CDB
:1022F0008091590281118CC0C0915C02D0915D0225
:102300002196D0935D02C0935C022097B9F480912E
:102310007702909178022091750230917602309385
:1023200078022093770290937602809375028091D1
:102330005E028F5F80935E020E94D50580915702F6
:1023400090915802F12CC817D90708F451C0E091B8
:102350007702F09178028081811105C0D0925802F5
:10236000C092570245C0E0917702F0917802058053
:10237000F681E02D06811781D80112968D919C91EE
:102380001397C817D90728F49093580280935702DF
:102390002FC04801B2E08B0E911CC4010E94420E76
:1023A000F80184899589892B21F0C8010C960E9437
:1023B000420ED80156968C919091B802981710F45D
:1023C0008093B802B89EC0011124B4018C569D4F71
:1023D0000E94650EE091BA02F091BB02D8015696B8
:1023E0009C918689981708F4B2CFFF24F394AFCF5D
:1023F000E091BA02F091BB02E689BE9EF001112481
:10240000EC56FD4F8081823048F0FF24F39406C0E3
:102410008091DA018F5F8093DA01F12C8091DB01EA
:10242000811101C0F110A092DB01EA94E11060CFAC
:102430001092DA018091DB01882309F40FCF0E940A
:10244000860E81E00F900FBEDF91CF911F910F910B
:10245000FF90EF90DF90CF90BF90AF909F908F90C4
:102460000895CF93DF93CDB7DEB72C970FB6F894CE
:10247000DEBF0FBECDBFE0915502F0915602FF24A2
:10248000F3948081882339F0F12C0580F681E02DCA
:102490000081118102C000E010E00E94EC0D0E945A
:1024A000B90F6C018091DD019091DE01C816D9064B
:1024B00020F40E94ED0F81E001C080E0D092DE01A7
:1024C000C092DD01811178C0F11034C0C016D10670
:1024D000C8F10E941611E0915502F0915602058054
:1024E000F681E02DE680F780C70102960E94420E39
:1024F000D7011E968C911E97813089F41C966D91A0
:102500007C911D97600F711F9801A601C7010E9461
:10251000C30F882321F0B801C7010E946115D701BC
:102520005196ED91FC915297C701099594E0C92EFF
:10253000D12C52C0E0915302F0915402BB24B394C9
:1025400080818111B12CE0905A02F0905B020FB6AD
:10255000F8940F92F701858D8F3F09F4158ED701FE
:102560005E968C915E978F3F11F45E961C920F9051
:102570000FBEF701828D811115C06091BA02709172
:10258000BB02645F7F4FC70141960E94650EB11088
:1025900004C0C8018C199D0902C08FEF9FEF6B2DFD
:1025A0000E943A10C7010E94FD0D0E941611811170
:1025B000BDCF0E94860EBACF0E941611B7CFEA8017
:1025C000FB80F801648575856E0D7F1D9701C8013C
:1025D0000E94C30F81118DC089E0782E00915A02AC
:1025E00010915B021A86198680E05801B1E1AB0EAA
:1025F000B11C0FB6F8940F92F801F28CFF2009F489
:102600009FC0448D4423C9F050E086819781840F98
:10261000951F97838683228133818217930720F049
:102620008081918197838683D80116966D917C91E4
:102630001797CE0101960E94191BFA94F801F28EA9
:1026400080819181892BB1F48091BA029091BB0273
:10265000892B39F0E091BA02F091BB0282A18F5F21
:1026600082A38091BA029091BB02D80113969C93E9
:102670008E931297F8018085882339F0C801089657
:102680000E94D61081110E94860E0F900FBE898085
:1026900087FCA4CF0C811D81D8011A968D919C9145
:1026A0001B97892B21F0C80102960E94420E0E94BE
:1026B000B90FAC018091DD019091DE0148175907F7
:1026C00030F44B875C870E94ED0F5C854B855093FF
:1026D000DE014093DD01882D880C990BAA0BBB0B02
:1026E0008A30910508F07ACFFC01EC5CFF4F0C9426
:1026F000AB18D8015196ED91FC915297C8010995FC
:10270000F8018685813009F067CF84859585B7010A
:10271000680F791FC8010E9461155ECF6A817B81B5
:10272000D8011D967C936E931C97640F751F9A01B8
:10273000C8010E94C30F50CFC8010E94890F4CCF1F
:1027400029853A85232B19F40F900FBE94CE811161
:1027500009C080915E028E8380915C0290915D023F
:1027600098878F830F900FBE0E94EC0D0FB6F894E0
:102770000F92D8015D968C915D978F3F11F45D9615
:102780001C92F801868D8F3F09F4168E0F900FBEB4
:10279000BE01675F7F4FCE0106960E94A110811196
:1027A00087C0C8010E94F20D882309F47BC0D801BC
:1027B0008D919C91892B09F05AC00FB6F8940F9215
:1027C000F801E280F380E114F10409F44EC0D7016E
:1027D00056968C915697E091BA02F091BB02968979
:1027E000891708F042C01C962D913C911D9737FD2A
:1027F0000CC0E091BA02F091BB0296899601291BA8
:1028000031091D963C932E931C97789EC00111248C
:102810008C569D4FF7012285338528173907F1F42F
:102820004701F2E08F0E911CC4010E94420EE0911C
:10283000BA02F091BB022689D70156962C9380915B
:10284000B802821710F42093B802729EC0011124BE
:10285000B4018C569D4F0E94650E07C0E091BA02EC
:10286000F091BB028689F701868B0F900FBEE98439
:10287000FA846091BA027091BB02645F7F4FC50118
:102880000E94430F61E0C7010E943A10C8010E94F4
:10289000FD0D0E941611882311F081E0AACE0E943E
:1028A000860EFBCFC8010E94FD0D0E941611F5CFC8
:1028B000C8010E94FD0D0E941611C8010E94F20D70
:1028C000882359F3D8CDAF92BF92CF92DF92EF9287
:1028D000FF920F931F93CF93DF9300D000D01F92EE
:1028E000CDB7DEB78C017B011D821C8290E05801C0
:1028F00088E0A80EB11C0FB6F8940F92F801228D53
:10290000838D281708F06DC0D28C448D41113FC0D3
:1029100080819181892B09F052C0F801E280F38017
:10292000E114F10411F480E02EC0F70182A181507E
:1029300082A3268991A12917B1F38111F4CF570100
:10294000F2E0AF0EB11CC5010E94420EF70191A149
:10295000968B492F50E024E030E0241B350B35875F
:1029600024878091B802891710F49093B80229E067
:10297000249FC001259F900D1124B5018C569D4FB9
:102980000E94650E81E0F8011382128219C050E0A6
:10299000B701F801848195810E94191BF801248DEB
:1029A00084819581820F911D958384832281338157
:1029B0008217930720F0808191819583848380E042
:1029C000D394F801D28E9189992321F0C8014196C0
:1029D0000E94D61081110E94860E0F900FBE81E0DA
:1029E00060C02C813D81232B19F40F900FBE58C07D
:1029F000911109C080915E02898380915C0290915F
:102A00005D029B838A830F900FBE0E94EC0D0FB670
:102A1000F8940F92F801858D8F3F09F4158EF80117
:102A2000868D8F3F09F4168E0F900FBEBE016C5F2E
:102A30007F4FCE0101960E94A11081112CC00FB6CC
:102A4000F8940F92F801928D838D0F900FBE98131A
:102A50001CC0CC80DD802091BA023091BB02B9014C
:102A6000645F7F4FC5010E94430F61E0C6010E9471
:102A70003A10C8010E94FD0D0E941611882311F022
:102A800091E039CF0E94860EFBCFC8010E94FD0D58
:102A90000E941611F5CFC8010E94FD0D0E9416116B
:102AA00080E00F900F900F900F900F90DF91CF91DB
:102AB0001F910F91FF90EF90DF90CF90BF90AF905C
:102AC0000895CF93DF9300D000D01F92CDB7DEB72B
:102AD0009C0180915A0290915B02009761F01982EB
:102AE0007B836A833D832C832091B902222329F0C2
:102AF0002091590202C080E005C0BE016F5F7F4F88
:102B00000E9463140F900F900F900F900F90DF9121
:102B1000CF910895789484B5826084BD84B5816036
:102B200084BD85B5826085BD85B5816085BD809198
:102B30006E00816080936E00109281008091810010
:102B40008260809381008091810081608093810008
:102B5000809180008160809380008091B1008460CA
:102B60008093B1008091B00081608093B00080912B
:102B70007A00846080937A0080917A0082608093EA
:102B80007A0080917A00816080937A0080917A0047
:102B9000806880937A001092C1000E940A0503E7C2
:102BA00012E020E040EC50E063EA71E08AE997E04F
:102BB0000E940417813009F0B0C00FB6F8940F924C
:102BC00080915A0290915B02892B09F04BC088E6F4
:102BD00092E00E947B0F8FE592E00E947B0F88E6D7
:102BE00092E090935602809355028FE592E0909385
:102BF00054028093530281E590E00E949A0FEC0109
:102C0000009761F14F96998388838AE08B8F85E0E6
:102C10008C8F0FB6F8940F92288139819B8D4C8D43
:102C2000949FC0011124B901680F791F7B836A83C7
:102C30001A8E3D832C83841B9109820F931F9F83DF
:102C40008E838FEF8D8F8E8FCE0108960E947B0F23
:102C5000CE0141960E947B0F0F900FBED0935B0276
:102C6000C0935A020F900FBE80915A0290915B025E
:102C7000892B09F452C001E712E023E045E550E05A
:102C800068EA71E081E392E10E940417813009F063
:102C900044C0F8942FEF3FEF30935802209357022F
:102CA0008093B90210925D0210925C02A89520EC0C
:102CB00088E190E00FB6F894A895809360000FBE6D
:102CC00020936000A091BA02B091BB02CD91CDBF1C
:102CD000DD91DEBFFF91EF91DF91CF91BF91AF9179
:102CE0009F918F917F916F915F914F913F912F9124
:102CF0001F910F91FF90EF90DF90CF90BF90AF901A
:102D00009F908F907F906F905F904F903F902F900B
:102D10001F900F900FBE0F9008950E948D070E9484
:102D20000A050E94BE08FDCFCF93DF93E1ECF2E0ED
:102D30001382128288EE93E0A0E0B0E08483958352
:102D4000A683B7832AE031E03183208325EC30E08D
:102D50003587248724EC30E03787268720EC30E065
:102D6000318B208B21EC30E0338B228B22EC30E056
:102D7000358B248B26EC30E0378B268B118E128E10
:102D8000138E148EE7E8F3E0138212828483958316
:102D9000A683B7838AE191E091838083CEE5D3E077
:102DA0001B821A828AE291E0998388831C868EE0D6
:102DB0000E946E0B9E878D87E6ECF0E0E491EF8732
:102DC0008FE00E946E0B998B888BE7ECF0E0E4912A
:102DD000EA8B80E10E946E0B9C8B8B8BE8ECF0E021
:102DE000E491ED8B1C82DF91CF9108950E94EC0D50
:102DF00060E085E090E00E943A100E941611811177
:102E000002C00E94860E08957F928F929F92AF9289
:102E1000BF92CF92DF92EF92FF920F931F93CF93C7
:102E2000DF93982EC92E762E872EEA01D22ECA0164
:102E30000E949A0F5C01892B09F448C188E290E056
:102E40000E949A0F7C010097D9F0DC015896BC9241
:102E5000AE925797AE0165EA70E0C5010E94221B51
:102E60002197D7015796ED91FC915897EC0FFD1FD4
:102E7000B701675E7F4FA72DB82DCD01089607C01B
:102E8000C5010E94890F22C1A817B90749F09D0109
:102E90004D91EB014993BE01E90128812111F4CF45
:102EA000D70190961C922D2D243008F023E0E701E5
:102EB0002E8B29A31AA21B861A861D8A1C8AF986C4
:102EC000E88684E090E0821B91099D878C87FB8ACD
:102ED000EA8A1BA21CA21DA21EA21FA291E190833E
:102EE000DF01119782E28C93119723E32C931197C2
:102EF0009C921197CC9211971C92119720E82C93D9
:102F000011971C92119722E02C93119723E02C9398
:102F1000119724E02C93119725E02C93119726E02C
:102F20002C93119727E02C93119728E02C9311975D
:102F300029E02C93119720E12C9311979C931197E2
:102F400092E19C93119793E19C93119794E19C9348
:102F5000119795E19C93119796E19C93119797E1B6
:102F60009C93119798E19C93119799E19C931197E9
:102F700090E29C93119791E29C9311978C931197F7
:102F800083E28C9311971C9211971C92119786E201
:102F90008C93119787E28C93119788E28C93119709
:102FA00089E28C93119780E38C93119781E38C9342
:102FB000B697F983E8830115110519F0F801F1823C
:102FC000E0820FB6F8940F928091BC028F5F8093DD
:102FD000BC028091BA029091BB02892BD1F5F0928C
:102FE000BB02E092BA028091BC02813009F043C07A
:102FF00084E992E00E947B0F8DE992E00E947B0FB2
:1030000086EA92E00E947B0F8FEA92E00E947B0F9B
:103010008DE793E00E947B0F84E793E00E947B0F93
:103020008BE892E00E947B0F82E892E00E947B0F87
:1030300089E792E00E947B0F8DE793E090937802FE
:103040008093770284E793E09093760280937502F1
:1030500012C08091B90281110EC0E091BA02F091C4
:10306000BB029689D70156968C91891720F0F09271
:10307000BB02E092BA02809186038F5F8093860341
:10308000E7018E899091B802981710F48093B802E6
:10309000D9E08D9FC0011124B7016E5F7F4F8C5620
:1030A0009D4F0E94650E0F900FBE8091B90288233C
:1030B00059F0E091BA02F091BB029689F701868936
:1030C000981710F40E94860E81E001C08FEFDF9107
:1030D000CF911F910F91FF90EF90DF90CF90BF9015
:1030E000AF909F908F907F90089597FB072E16F4D6
:1030F000009407D077FD09D00E94B11807FC05D0D5
:103100003EF4909581959F4F0895709561957F4FFE
:103110000895A1E21A2EAA1BBB1BFD010DC0AA1F18
:10312000BB1FEE1FFF1FA217B307E407F50720F030
:10313000A21BB30BE40BF50B661F771F881F991FAB
:103140001A9469F760957095809590959B01AC01F4
:10315000BD01CF010895EE0FFF1F0590F491E02D02
:103160000994AA1BBB1B51E107C0AA1FBB1FA617CE
:10317000B70710F0A61BB70B881F991F5A95A9F720
:1031800080959095BC01CD0108950E94051990F09D
:103190009F3748F4911116F40C94FE1B60E070E028
:1031A00080E89FE3089526F01B16611D711D811DA7
:1031B0000C94DC180C94F718882371F4772321F011
:1031C0009850872B762F07C0662311F499270DC0DE
:1031D0009051862B70E060E02AF09A95660F771F79
:1031E000881FDAF7880F9695879597F908959F3F7E
:1031F00031F0915020F4879577956795B795880FB2
:10320000911D9695879597F908950E94E31BA0F06C
:10321000BEE7B91788F4BB279F3860F41616B11DB6
:10322000672F782F8827985FF7CF869577956795D2
:10323000B11D93959639C8F30895CF93DF938230EB
:10324000910510F482E090E0E0919503F0919603EF
:1032500020E030E0C0E0D0E0309711F140815181B2
:1032600048175907C0F04817590761F482819381C4
:10327000209719F09B838A832BC0909396038093A9
:10328000950326C02115310519F04217530718F48C
:103290009A01BE01DF01EF010280F381E02DDCCF56
:1032A0002115310509F1281B390B2430310590F423
:1032B00012968D919C9113976115710521F0FB0178
:1032C0009383828304C09093960380939503FD01BA
:1032D000329644C0FD01E20FF31F81939193225077
:1032E00031092D933C933AC020919303309194037C
:1032F000232B41F420910201309103013093940378
:103300002093930320910001309101012115310593
:1033100041F42DB73EB74091040150910501241BA3
:10332000350BE0919303F0919403E217F307A0F4B7
:103330002E1B3F0B2817390778F0AC014E5F5F4F0B
:103340002417350748F04E0F5F1F509394034093A6
:1033500093038193919302C0E0E0F0E0CF01DF910D
:10336000CF9108950F931F93CF93DF93009709F4A4
:103370008CC0FC0132971382128200919503109148
:1033800096030115110581F420813181820F931F6D
:1033900020919303309194032817390779F5F0931E
:1033A0009403E093930371C0D80140E050E0AE175E
:1033B000BF0750F412962D913C911397AD01211542
:1033C000310509F1D901F3CF9D01DA01338322835D
:1033D00060817181860F971F8217930769F4EC0152
:1033E00028813981260F371F2E5F3F4F318320837D
:1033F0008A819B8193838283452B29F4F0939603E2
:10340000E093950342C01396FC93EE931297ED015F
:10341000499159919E01240F351FE217F30771F46A
:1034200080819181840F951F029611969C938E93B3
:103430008281938113969C938E931297E0E0F0E043
:10344000D80112968D919C911397009719F0F8016D
:103450008C01F6CF8D919C9198012E5F3F4F820F8A
:10346000931F20919303309194032817390769F42F
:10347000309729F4109296031092950302C013829C
:1034800012821093940300939303DF91CF911F91C5
:103490000F910895A0E0B0E0E0E5FAE10C94081C7B
:1034A000EC01009721F4CB010E941D19B8C0FC016A
:1034B000E60FF71F9C0122503109E217F30708F4C9
:1034C000ACC0D9010D911C91119706171707B0F0E8
:1034D0000530110508F49FC0C801049786179707A7
:1034E00008F499C002501109061B170B01931193A0
:1034F0006D937C93CF010E94B2198DC05B01A01A1D
:10350000B10A4C01800E911EA0919503B0919603D3
:1035100040E050E0E12CF12C109709F44AC0A815C6
:10352000B905D1F56D907C901197630182E0C80ECA
:10353000D11CCA14DB0480F1A3014A195B096A019A
:1035400082E0C80ED11C1296BC9012971396AC91D3
:10355000B5E0CB16D10440F0B282A38351834083FF
:10356000D9016D937C930AC00E5F1F4FC301800F7A
:10357000911FF90191838083EB2DFA2FE114F1045F
:1035800031F0D7011396FC93EE93129744C0F09359
:103590009603E09395033FC08D919C911197481736
:1035A000590708F4AC017D0112960D90BC91A02D35
:1035B000B3CF809193039091940388159905E1F41A
:1035C00046175707C8F480910001909101010097B8
:1035D00041F48DB79EB74091040150910501841BC1
:1035E000950BE817F907C8F4F0939403E09393035D
:1035F000F901718360830FC0CB010E941D197C010A
:10360000009759F0A801BE010E94191BCE010E942B
:10361000B219C70104C0CE0102C080E090E0CDB76E
:10362000DEB7EEE00C94241C81E090E0F8940C945A
:103630003B1CFB01DC0102C001900D924150504047
:10364000D8F70895DC0101C06D9341505040E0F778
:103650000895FB01DC018D91019080190110D9F3CF
:10366000990B0895FB01DC0101900D920020E1F718
:1036700008951F93FC0199278827BC01E8941191B4
:103680001032E9F3193010F01E30C8F31B3251F03C
:103690001D3249F4689406C00E94601B610F711DC1
:1036A000811D911D119110531A30B0F33EF4909585
:1036B0008095709561957F4F8F4F9F4F1F91089513
:1036C000592F482F372F262F660F771F881F991FD6
:1036D000660F771F881F991F620F731F841F951F26
:1036E000660F771F881F991F08950E94B71B08F463
:1036F00081E00895E89409C097FB3EF49095809589
:10370000709561957F4F8F4F9F4F9923A9F0F92FA7
:1037100096E9BB279395F695879577956795B79525
:10372000F111F8CFFAF4BB0F11F460FF1BC06F5F0B
:103730007F4F8F4F9F4F16C0882311F096E911C01D
:10374000772321F09EE8872F762F05C0662371F03E
:1037500096E8862F70E060E02AF09A95660F771F52
:10376000881FDAF7880F9695879597F90895990F2E
:103770000008550FAA0BE0E8FEEF16161706E8073B
:10378000F907C0F012161306E407F50798F0621B5C
:10379000730B840B950B39F40A2661F0232B242B31
:1037A000252B21F408950A2609F4A140A6958FEF50
:1037B000811D811D089557FD9058440F551F59F0E4
:1037C0005F3F71F04795880F97FB991F61F09F3F0E
:1037D00079F087950895121613061406551FF2CF37
:1037E0004695F1DF08C0161617061806991FF1CF87
:1037F00086957105610508940895E894BB276627AE
:103800007727CB0197F908952F923F924F925F92BD
:103810006F927F928F929F92AF92BF92CF92DF92E0
:10382000EF92FF920F931F93CF93DF93CDB7DEB745
:10383000CA1BDB0B0FB6F894DEBF0FBECDBF0994D9
:103840002A88398848885F846E847D848C849B8430
:10385000AA84B984C884DF80EE80FD800C811B813E
:10386000AA81B981CE0FD11D0FB6F894DEBF0FBE6D
:0A387000CDBFED010895F894FFCFDD
:10387A00000097038000000000005508D1071E08C9
:10388A00FC0710089C0800000000C405B005A90543
:10389A00A605A305A205000000009300D1074A046B
:1038AA0092009100EC004350552520002500475016
:1038BA005525200052414D25200054454D502000E9
:1038CA0043505520002047505520000D0A006C65D2
:1038DA0064730066616E730073746174006C6F6167
:1038EA00640074656D70005072696E745F546F5F26
:1038FA004C4344004379636C655F5247425F436FB0
:10390A006C6F7273005365745F46616E5F537065C6
:10391A0065640049444C4500546D72205376630037
:107E0000112484B714BE81FFF0D085E080938100F7
:107E100082E08093C00088E18093C10086E0809377
:107E2000C20080E18093C4008EE0C9D0259A86E02C
:107E300020E33CEF91E0309385002093840096BBD3
:107E4000B09BFECF1D9AA8958150A9F7CC24DD24C4
:107E500088248394B5E0AB2EA1E19A2EF3E0BF2EE7
:107E6000A2D0813461F49FD0082FAFD0023811F036
:107E7000013811F484E001C083E08DD089C08234E0
:107E800011F484E103C0853419F485E0A6D080C0E4
:107E9000853579F488D0E82EFF2485D0082F10E0AE
:107EA000102F00270E291F29000F111F8ED06801E7
:107EB0006FC0863521F484E090D080E0DECF843638
:107EC00009F040C070D06FD0082F6DD080E0C81688
:107ED00080E7D80618F4F601B7BEE895C0E0D1E017
:107EE00062D089930C17E1F7F0E0CF16F0E7DF06D8
:107EF00018F0F601B7BEE89568D007B600FCFDCFD4
:107F0000A601A0E0B1E02C9130E011968C91119780
:107F100090E0982F8827822B932B1296FA010C0160
:107F200087BEE89511244E5F5F4FF1E0A038BF0790
:107F300051F7F601A7BEE89507B600FCFDCF97BE46
:107F4000E89526C08437B1F42ED02DD0F82E2BD052
:107F50003CD0F601EF2C8F010F5F1F4F84911BD097
:107F6000EA94F801C1F70894C11CD11CFA94CF0C13
:107F7000D11C0EC0853739F428D08EE10CD085E9AC
:107F80000AD08FE07ACF813511F488E018D01DD067
:107F900080E101D065CF982F8091C00085FFFCCF94
:107FA0009093C60008958091C00087FFFCCF809118
:107FB000C00084FD01C0A8958091C6000895E0E648
:107FC000F0E098E1908380830895EDDF803219F02E
:107FD00088E0F5DFFFCF84E1DECF1F93182FE3DFCA
:107FE0001150E9F7F2DF1F91089580E0E8DFEE27F6
:047FF000FF270994CA
:027FFE00040479
:0400000300007E007B
:00000001FF
